:020000040800F2
:1000000000000320A5780008ED270008EF2700086E
:10001000F1270008F3270008F5270008000000007A
:10002000000000000000000000000000F7270008AA
:10003000F927000800000000FB270008FD27000842
:10004000F5780008F5780008F5780008F5780008DC
:10005000F5780008F5780008992A0008F578000876
:10006000A32A0008AD2A0008F5780008F5780008F2
:10007000F5780008F5780008F5780008F5780008AC
:10008000F5780008F5780008F5780008F57800089C
:10009000F5780008F5780008F5780008F57800088C
:1000A000F5780008F5780008F5780008F57800087C
:1000B000F5780008912B0008F5780008F57800081D
:1000C000F5780008F5780008F5780008F57800085C
:1000D000F5780008F5780008F12C0008F57800089C
:1000E000B72A0008F5780008F5780008F5780008C8
:1000F000F5780008F5780008F5780008F57800082C
:10010000F5780008F5780008F5780008F57800081B
:10011000F5780008F5780008F5780008F57800080B
:10012000F5780008F5780008F5780008F5780008FB
:10013000F5780008F5780008F5780008F5780008EB
:10014000F5780008F5780008F5780008F5780008DB
:10015000F5780008F5780008F5780008F5780008CB
:10016000F5780008F5780008F5780008F5780008BB
:10017000F5780008F5780008F57800080000000020
:10018000F5780008F5780008F5780008F57800089B
:10019000F5780008F5780008F5780008F57800088B
:0C01A000F5780008F5780008F5780008F4
:1001C000044B05481B1A062B02D9044B03B11847F0
:1001D000704700BF7B000020780000200000000076
:1001E00005490648091A891001EBD171491002D05E
:1001F000034B03B1184770477800002078000020B7
:100200000000000010B5064C237843B9FFF7D8FF73
:10021000044B13B10448AFF300800123237010BDD9
:100220007800002000000000F878000808B5084BAE
:100230001BB108490848AFF300800848036813B9A8
:10024000BDE80840CCE7064B002BF9D09847F7E70C
:10025000000000007C000020F878000878000020F2
:100260000000000070B50F4E0F4D761BB61018BF82
:10027000002405D0013455F8043B9847A642F9D133
:100280000A4E0B4D761B07F037FBB61018BF002443
:1002900006D0013455F8043B9847A642F9D170BD09
:1002A00070BD00BFA4C20008A4C20008A8C2000814
:1002B000A4C2000870B4860746D0541E002A41D05C
:1002C000CAB2034602E014F1FF343BD303F8012B1A
:1002D0009D07F8D1032C2ED9CDB245EA05250F2C68
:1002E00045EA054519D903F110022646103E0F2EA6
:1002F00042F8105C42F80C5C42F8085C42F8045C7E
:1003000002F11002F2D8A4F1100222F00F0204F060
:100310000F041032032C13440DD91E462246043A12
:10032000032A46F8045BFAD8221F22F003020432A3
:10033000134404F003042CB1C9B21C4403F8011B9C
:100340009C42FBD170BC704714460346C2E700BF15
:100350000EB410B5044683B018B183690BB900F030
:100360005BFC06A803460190059AA168204601F0AF
:100370000FF803B0BDE8104003B070470FB410B5DC
:100380000A4B1C6882B024B1A36913B9204600F05F
:1003900043FC05A803460190049AA168204600F09A
:1003A000F7FF02B0BDE8104004B070470000002025
:1003B0002DE9F0410E46804600283ED08369002B8F
:1003C00039D084682F4B9C4243D02F4B9C4256D04F
:1003D0002E4B9C4208BFD8F80C40A3891B073DD583
:1003E0002369002B3AD0013EA36816F8015F013B58
:1003F000A360B5B1002B04DB23685A1C22601D707A
:10040000F2E7A769BB4222462946404601DB0A2D96
:10041000F2D100F055F90130E6D14FF0FF30BDE8E0
:10042000F081002B21DB23680A22591C21601A70FD
:100430001046BDE8F08100F0EFFBD8F81830D8F88E
:100440000840002BBED1404600F0E6FB0D4B9C421D
:10045000BBD1D8F80440A3891B07C1D4214640462C
:1004600000F090F90028BED0D7E7224640460A2186
:1004700000F026F90130D0D00A20BDE8F081D8F88C
:100480000840AAE7B8790008987900087879000848
:10049000024B01461868FFF78BBF00BF0000002029
:1004A0000CB4F0B59DB022AC029154F8042B069127
:1004B00023466FF000454FF402774FF6FF7602A90E
:1004C0000194ADF8147004950795ADF8166000F02E
:1004D0000BFE029B00221A701DB0BDE8F04002B076
:1004E000704700BF0EB4F0B59CB021AB0F4953F874
:1004F000042B019305466FF00044086802954FF401
:1005000002774FF6FF7602A90695ADF814700494B1
:100510000794ADF8166000F0E7FD029B00221A7008
:100520001CB0BDE8F04003B0704700BF00000020E1
:1005300000000000000000000000000000000000BB
:1005400090F800F06DE9024520F007016FF0000C13
:1005500010F0070491F820F040F049804FF00004BB
:100560006FF00700D1E9002391F840F000F1080096
:1005700082FA4CF2A4FA8CF283FA4CF3A2FA8CF3CE
:100580004BBBD1E9022382FA4CF200F10800A4FA35
:100590008CF283FA4CF3A2FA8CF3E3B9D1E9042389
:1005A00082FA4CF200F10800A4FA8CF283FA4CF3C0
:1005B000A2FA8CF37BB9D1E9062301F1200182FA7A
:1005C0004CF200F10800A4FA8CF283FA4CF3A2FA80
:1005D0008CF3002BC6D0002A04BF04301A4612BA8E
:1005E000B2FA82F2FDE8024500EBD2007047D1E991
:1005F000002304F00305C4F100004FEAC50514F020
:10060000040F91F840F00CFA05F562EA05021CBFF0
:1006100063EA050362464FF00004A9E7002A41D0CF
:1006200040EA010313F00303F0B425D1032A23D9D0
:1006300004680D68AC421FD1043A38D0A4F10135EA
:1006400025EA040414F0803F2ED1043004310FE079
:1006500050F8043B0E68A3F10134B34224EA0304CA
:1006600001F1040126D1043A21D014F0803F1BD1BE
:10067000032A07460D46EBD805780C78AC4202F108
:10068000FF331AD183B114B90EE06BB17AB110F80F
:10069000012F11F8014FA24203F1FF33F5D0101BD7
:1006A000F0BC7047104670470020F0BC7047104601
:1006B000F0BC704729463846DEE72A46EFE700BF20
:1006C000F8B50D461446064610B18369002B42D09A
:1006D000254B9C4244D0254B9C4243D0244B9C420A
:1006E00008BFF468A389A269A2601A0722D523690A
:1006F00003B322686169D31AEDB28B422F4621DA27
:100700000133A168501C0139A16020601570626935
:100710009A4206D0A389DB0701D50A2D01D03846BD
:10072000F8BD2146304600F03BF90028F7D04FF0E5
:10073000FF37F4E72146304600F024F80028F6D1D0
:100740002369D6E72146304600F02AF90028EED189
:1007500022680123D5E700F05FFA034B9C42BAD12F
:100760007468BFE7B468BDE7B879000898790008F5
:1007700078790008024B0A4601461868FFF7A0BFC7
:1007800000000020384B70B51D6806460C4615B1B8
:10079000AB69002B42D0354B9C4245D0344B9C4238
:1007A00058D0344B9C4208BFEC68B4F90C2093B28B
:1007B00019070CD52069A8B113F001021ED0636996
:1007C00000225B42A361A260F0B1002070BDDD0693
:1007D00042D558072AD4206942F00803A3819BB26E
:1007E0000028E9D103F42072B2F5007FE4D030464E
:1007F000214600F0AFFAA3892069DDE7990758BFC9
:100800006269A2600028E0D1B4F90C301A06DDD587
:1008100043F04003A3814FF0FF3070BD284600F045
:10082000FBF9124B9C42B9D16C68BEE7616B51B1C8
:1008300004F14403994204D0304600F0CFFAB4F9F1
:100840000C200023636300232069636022F02402EC
:100850002060C1E7AC68A8E742F04002092333609A
:100860004FF0FF30A28170BD00000020B879000871
:1008700098790008787900088B891A072DE9F041EA
:100880000D46804633D44A68002A67DDEC6A002CA6
:1008900045D00022D8F80060C8F8002013F4805238
:1008A00060D06A6D5F0705D569686B6B521A0BB132
:1008B0002B6CD21A0023296A4046A047441C39D029
:1008C000AB892A692A60DB044FF000026A6043D4D6
:1008D000696BC8F8006011B305F14403994202D076
:1008E000404600F07BFA00206863BDE8F0810E69A5
:1008F000AEB10C680E6098070CBF4B690023A41BB7
:100900008B600AE023463246AF6A296A4046B84700
:100910000028A4EB0004064404DD002CF2DC0020D7
:10092000BDE8F081AB8943F04003AB814FF0FF306D
:10093000BDE8F081D8F800201D2AF3D8174BD3402A
:10094000DB4313F00103EDD1A9892C696B60C90465
:100950002C60BDD5002ABBD16865B9E70A6C002AB6
:1009600094DCDCE70123296A4046A047431C024689
:1009700002D0AB89EC6A95E7D8F80030002BF8D0AC
:100980001D2B01D0162B02D1C8F80060C7E7AB8938
:1009900043F04003AB81BDE8F08100BF010040207F
:1009A0000B6933B310B5044682B008B18369ABB1AB
:1009B000114B994219D0114B994218D0104B9942C2
:1009C00008BFE168B1F90C3013B9002002B010BDC6
:1009D000204602B0BDE81040FFF74EBF019100F085
:1009E0001BF90199044B9942E5D16168EAE7A168D6
:1009F000E8E70020704700BFB87900089879000840
:100A00007879000820B1054B01461868FFF7C8BF88
:100A1000034B0449186800F045B900BF00000020EE
:100A200074790008A109000800207047014900F00E
:100A300039B900BFA10900080020704770B54A1EEF
:100A4000682505FB02F50E4605F1740100F00EFA6B
:100A5000044640B100210C30666005F16802216057
:100A6000A060FFF727FC204670BD00BF204B70B58B
:100A70001D68AB6906465BB348356B68AC68013BE3
:100A800005D521E0013B5A1C04F168041CD0B4F9DF
:100A90000C20002AF6D100254FF6FF720123E281D7
:100AA000A38165662560A560656025616561A561B6
:100AB0002946082204F15C00FFF7FCFB6563A5638F
:100AC000A564E564204670BD286828B10546D4E7D2
:100AD000284600F00FF8CFE704213046FFF7AEFFBD
:100AE00028600028F2D10C2304463360EAE700BFF7
:100AF000747900083D4B3E491A682DE9F04F904249
:100B00004FF000038364C364036508BF012383B00F
:100B100008BF836181620746FFF7A8FF7860384607
:100B2000FFF7A4FFB8603846FFF7A0FF7D68F860C4
:100B300000240423AB812C606C60AC606C66EC819B
:100B40002C616C61AC61214605F15C000822FFF765
:100B5000B1FBBE68DFF89CB0DFF89CA0DFF89C908A
:100B6000DFF89C80C5F824B001230922C5F828A02D
:100B7000C5F82C90C5F830802D622146F381B281F2
:100B800034607460B460746634617461B46106F199
:100B90005C0008220193FFF78DFBFD68366212208E
:100BA0000222C6F824B0C6F828A0C6F82C90C6F8D1
:100BB00030802146A881EA812C606C60AC606C6654
:100BC0002C616C61AC6105F15C000822FFF772FBDF
:100BD000019B2D62C5F824B0C5F828A0C5F82C905B
:100BE000C5F83080BB6103B0BDE8F08F74790008B0
:100BF0002D0A0008051A00082D1A0008691A0008B5
:100C0000891A0008024B0349186800F04BB800BF6E
:100C100074790008A1090008836903B96AE770477D
:100C2000704700BF704700BF704700BF704700BFEC
:100C3000024B0349186800F00FB800BF0000002005
:100C4000390A0008024B0349186800F005B800BFD4
:100C500000000020290A00082DE9F04110F14807A2
:100C60001BD0884600267D68BC68013D0FD4A3894F
:100C7000012B05F1FF3506D9B4F90E3001332046BA
:100C800001D0C04706436B1C04F16804EFD13F68F4
:100C9000002FE8D13046BDE8F0813E463046BDE841
:100CA000F08100BF2DE9F84310F148071FD08846B6
:100CB00006464FF000097D68BC68013D11D4A38948
:100CC000012B05F1FF3508D9B4F90E300133214667
:100CD000304602D0C04749EA00096B1C04F16804A1
:100CE000EDD13F68002FE6D14846BDE8F883B9460C
:100CF0004846BDE8F88300BF70B50C46B1F90E1048
:100D0000002990B015461E4613DB01AA00F0E8FE4C
:100D100000280EDB029A02F47042A2F50052B2FAE9
:100D200082F252094FF48063002032602B6010B0D1
:100D300070BDA38900221B06326004D54023002029
:100D40002B6010B070BD4FF4806300202B6010B09A
:100D500070BD00BF8A8992070B4606D501F1470294
:100D600001211A601A6159617047F0B583B001AB77
:100D70006A460C460546FFF7BFFF0099064628461F
:100D800000F074F8B4F90C30D0B1019A124F009908
:100D9000AF6243F08003A3812060206161611AB9D2
:100DA0003343A38103B0F0BD2846B4F90E1001F01F
:100DB00023F8B4F90C300028F2D043F00103EFE738
:100DC0009A05EFD404F1470243F002030121A38105
:100DD000226022616161E5E72D0A000891B151F8B6
:100DE000043C0439002BB8BFC9181F4B1A68FAB16C
:100DF0008A4230B40AD908680C18A24226D04A6048
:100E0000196030BC70478B4203D81A465368002BD8
:100E1000F9D1146815198D420DD006D808680C1840
:100E20009C4219D04B605160EBE70C230360E8E76C
:100E30004A601960704709680C441119994214609E
:100E4000DFD10ACB0C4453601460DAE714685268AF
:100E50004A6020440860D3E71C685B684B6020440C
:100E600008605160CDE700BF9400002070B5CC1C35
:100E700024F0030408340C2C38BF0C24002C064644
:100E80003BDBA14239D8274D296851B10A68121BB2
:100E900004D436E01A68121B1AD519464B68002B89
:100EA000F8D16968002937D02146304600F098FD16
:100EB000431C22D0C31C23F00305A84205D0291AE5
:100EC000304600F08DFD013017D02C602B4604E039
:100ED0000B2A0DD91A6013441C6003F10B0020F09B
:100EE00007001A1D821A02D05142995070BD70BD80
:100EF0008B420ED05A684A60EFE70C233360002023
:100F000070BD0B2A03D84A680B462A60E5E70B46FA
:100F1000E0E70A460B46F8E7304600F061FD6860FE
:100F2000C2E700BF940000202DE9F0478E689E4282
:100F30000C461D46174628D88046888910F4906FC5
:100F400032D04E692368096906EB4606A3EB010916
:100F500006EBD6766B1C76104B44B342324684BF08
:100F60001E463246430522D511464046FFF77EFF16
:100F7000824680B34A46216900F0BAFFA38923F470
:100F8000906343F08003A38116E008681E462A465A
:100F9000394601F047F8A2682368961B2B44A660E7
:100FA00023600020BDE8F08708683546EFE740463B
:100FB00001F09CF8824650B1A6EB09030AEB090048
:100FC0006661C4F810A02060A3602E46DFE72169A7
:100FD0004046FFF703FF0C23C8F80030A38943F015
:100FE0004003A3814FF0FF30BDE8F0872DE9F04FBB
:100FF000936883B09046002B70D082460C461768E9
:101000008D68086842E0A38913F4906F2ED065695B
:10101000216905EB4505A0EB010B05EBD5750BF13F
:1010200001006D103044A8422A4684BF05462A4676
:101030005B0538D511465046FFF718FF00283CD015
:101040005A462169019000F053FFA289019B22F4C6
:10105000906242F08002A281A5EB0B0203EB0B0031
:10106000656123612060A2603546B3465A46494611
:1010700000F0D8FFD8F80830A2682068551B584403
:101080009E1BA5602060C8F808603EB37E683B46A2
:101090000837002EFAD0AE42D3F80090AB46B2D259
:1010A0003546B346E2E7504601F020F803460028F3
:1010B000D2D121695046FFF791FE0C23CAF80030C7
:1010C000A389002243F040034FF0FF30A381C8F80A
:1010D0000820C8F8042003B0BDE8F08F0020C8F84D
:1010E000040003B0BDE8F08F2DE9F04F14468A8963
:1010F0009DB0150689460393824603D50B69002BE4
:1011000000F0EB8030238DF82A3023787C4E0022CB
:10111000202109928DF829100127002B00F08480EE
:10112000252B254603D117E0252B00F0878015F8E5
:10113000013F002BF8D1B5EB040B75D022465B467E
:1011400049465046FFF7F0FE01306DD0099B2A78E2
:101150005B440993002A67D000234FF0FF3201352A
:101160000493079306938DF853301A93059204E085
:10117000049A07FA03F313430493297805223046AF
:1011800000F066FE2C46831B01350028F0D1049B3D
:10119000D90644BF20228DF8532021781A0744BF76
:1011A0002B228DF853202A296BD0A1F13002092A75
:1011B0000BD8079B14F8011F03EB830302EB4303D7
:1011C000A1F13002092AF5D907932E2941D04D4DBE
:1011D0000322284600F03CFE38B1049B401B40220D
:1011E00002FA00F0034301340493217846488DF855
:1011F00028100622013400F02BFE00284BD0434B70
:1012000003B303AB00934A46414B04A95046AFF3E6
:1012100000808046B8F1FF3F06D0099B4344099304
:101220002378002B7FF47CAFB9F80C305B0654BFF9
:1012300009984FF0FF301DB0BDE8F08FB5EB040BFF
:101240008AD07BE7039B073323F00703083303931C
:10125000E3E761782A2904F1010026D0A1F13002E8
:101260000023092A05930446B1D814F8011F03EBA3
:10127000830302EB4303A1F13002092AF5D9059358
:10128000A5E7039A11680432002903921FDB079136
:101290006178013499E703AB00934A461C4B04A9DB
:1012A000504600F04DFA8046B4E7039B1A68059259
:1012B000002A03F104030393B8BF4FF0FF3204F197
:1012C0000203AEBFA178A17805921C467FE7494290
:1012D00043F0020307910493DAE74021FFF7C6FDCC
:1012E000C9F80000C9F8100018B14023C9F814303B
:1012F00008E70C23CAF800304FF0FF309BE700BF2F
:1013000060C2000868C200086CC20008000000004B
:10131000290F00089368013B002B10B4936008DB91
:10132000CCB21368581C1060197020465DF8044B4D
:1013300070479469A34202DBCCB20A2CF1D15DF86C
:10134000044BFFF7BDB900BF93B1F8B514460F4683
:101350000646D51801E0AC4208D03A4614F8011B05
:101360003046FFF7D7FF431CF5D1F8BD0020F8BD8C
:1013700000207047936810B5144613B9536018469F
:1013800010BD00F0C1FB0023A360636010BD00BF6F
:101390002DE9F04F9DB0894614460393824618B15B
:1013A0008369002B00F00A818A4B994500F00C817B
:1013B000894B994500F00B81884B994508BFDAF8B5
:1013C0000C90B9F80C30180740F1EE80D9F81030C5
:1013D000002B00F0E98030238DF82A302378804EEE
:1013E0000021202209918DF829200127002B00F0EF
:1013F0008480252B254603D117E0252B00F085801E
:1014000015F8013F002BF8D1B5EB040B75D022463F
:101410005B4649465046FFF797FF01306DD0099B68
:101420002A785B440993002A67D000234FF0FF32EB
:1014300001350493079306938DF853301A93059260
:1014400004E0049A07FA03F313430493297805226E
:10145000304600F0FDFC2C46831B01350028F0D1FE
:10146000049BD90644BF20228DF8532021781A0707
:1014700044BF2B228DF853202A2969D0A1F13002D4
:10148000092A0BD8079B14F8011F03EB830302EB17
:101490004303A1F13002092AF5D907932E293FD041
:1014A000504D0322284600F0D3FC38B1049B401B6A
:1014B000402202FA00F003430134049321784A48A1
:1014C0008DF828100622013400F0C2FC002849D013
:1014D000464BF3B103AB00934A46454B04A9504633
:1014E000AFF300808046B8F1FF3F06D0099B43442C
:1014F00009932378002B7FF47CAFB9F80C305B069E
:1015000059D409981DB0BDE8F08FB5EB040B8CD011
:101510007DE7039B073323F0070308330393E5E7D5
:1015200061782A2904F1010026D0A1F130020023BC
:10153000092A05930446B3D814F8011F03EB83036B
:1015400002EB4303A1F13002092AF5D90593A7E77D
:10155000039A11680432002903921FDB0791617816
:1015600001349BE703AB00934A46214B04A9504644
:1015700000F0E6F88046B6E7039B1A680592002A59
:1015800003F104030393B8BF4FF0FF3204F10203E9
:10159000AEBFA178A17805921C4681E7494243F08D
:1015A000020307910493DAE749465046FFF7EAF849
:1015B00000283FF410AF4FF0FF30A3E7FFF72CFBFC
:1015C000044B99457FF4F4AEDAF80490F9E6DAF8C2
:1015D0000890F6E6B879000898790008787900084C
:1015E00060C2000868C200086CC200080000000069
:1015F0004913000810B4044C13460A4601462068FB
:101600005DF8044BFFF7C4BE000000202DE9F04751
:101610000C4691460A698968DDF820808A42B8BF85
:101620000A46C9F8002094F8431006461F4611B137
:101630000132C9F80020236899065DD5D9F8002049
:101640000232C9F80020236813F0060F19461DD195
:10165000E1688A1A002AD8BF194617DD04F1190A71
:10166000002505E0E368D9F800209B1AAB420CDDA9
:101670000123524639463046C047013005F1010585
:10168000F0D14FF0FF30BDE8F087216894F8433087
:10169000003318BF01238A060AD5E1185A1C3020EE
:1016A00081F84300224494F8451082F84310023335
:1016B00004F1430239463046C0470130E1D0236887
:1016C00003F00603042B29D0A36822699342C8BF04
:1016D0004FF0000930DD9B1A99441A34002501E0CF
:1016E0004D4529D00123224639463046C0470130B6
:1016F00005F10105F4D1C4E713F0060F08D1E16844
:10170000D9F800208A1A002AD8BF1946A6DCBDE7FE
:1017100094F84330003318BF0123C9E7D9F800100B
:10172000E068A3682269A0EB0109934229EAE979FC
:10173000D1DCB9F1000FD0D10020BDE8F08700BFA7
:101740002DE9F0430C46097E85B06E290646174602
:101750000C98984604F1430C55D00FD8632900F03B
:101760001B8100F2D68000295CD0582940F0E88027
:1017700084F845102268DFF860E213E0732900F076
:10178000FD8000F289806F2900F0E480702940F02C
:10179000D780226842F0200222607823DFF83CE202
:1017A00084F845300368150603F1040100F1FF8059
:1017B00055064BBF1B881B6801600160D00744BF02
:1017C00042F020022260002B40F09580226822F037
:1017D000200222601021002284F843206068A0606B
:1017E0000028C0F28D80226822F004022260002BC3
:1017F00067D1002840F08680654608296FD0ACEBA1
:101800000503236111E023681A0600F1D38013F069
:10181000400F0368626903F1040101601B6814BF93
:101820001A801A60002365462361CDF800803B468C
:1018300003AA21463046FFF7E9FE013021D02A46AF
:10184000236939463046C04701301AD02368E06822
:1018500013F0020F039B19D0C21A002A16DD04F1FF
:101860001909002504E0E068039BC21AAA420DDDB5
:1018700001234A4639463046C047013005F101058B
:10188000F1D14FF0FF3005B0BDE8F0839842B8BF0A
:10189000184605B0BDE8F08375295BD078294FD193
:1018A00022687AE76168A1602D200029C3F1000356
:1018B00084F8430021DB22F00402DFF81CE12260FF
:1018C0000A216546B3FBF1F201FB123013461EF804
:1018D000002005F8012D002BF4D108298FD12368B1
:1018E000D9078CD5626823699A4288DC302305F8D1
:1018F000013C013D83E710216DE7DFF8DCE00A21C0
:10190000002BDED19EF8003084F8423004F142050D
:1019100073E7642901D0692912D12268036815068A
:1019200003F1040152D455064BBFB3F900301B68D4
:1019300001600160002BB5DBDFF89CE00A214DE778
:10194000012384F84210236104F14205002384F846
:1019500043306AE723681A0633D413F0400F036854
:1019600003F1040215BF1B881B68026002606F2927
:1019700014BF0A210821DFF860E02CE703686268E1
:10198000191D01601D680021284600F061FA00B3AE
:10199000401B60602061D9E703681A68191D0123A4
:1019A000016004F1420584F842202361CEE7016022
:1019B0001B6803E703686269191D01601B681A60F0
:1019C00030E703681A1D02601B68D0E701601B68DE
:1019D000B0E76068DEE700BF74C2000888C2000894
:1019E00038B5074C002305460846236000F0EEFB9F
:1019F000431C00D038BD2368002BFBD02B6038BDC2
:101A00004C03002010B50C46B1F90E1000F096FB07
:101A1000002803DB636D0344636510BDA38923F4D1
:101A20008053A38110BD00BF002070472DE9F04115
:101A30001646B1F90C201F46D3050C46054607D5BE
:101A400000220223B1F90E1000F0E8F9B4F90C20DD
:101A5000B4F90E1022F48052A2813B463246284649
:101A6000BDE8F04100F014B810B50C46B1F90E1005
:101A700000F0D4F9A389421C0EBF23F4805343F431
:101A800080536065A38110BDB1F90E1000F016B847
:101A900070B50D46084C114606461A4628460023E6
:101AA000236001F05DF9431C00D070BD2368002B5A
:101AB000FBD0336070BD00BF4C03002038B5074C2D
:101AC000002305460846236000F058FB431C00D065
:101AD00038BD2368002BFBD02B6038BD4C030020A1
:101AE00038B50B46074C05461146184600232360BF
:101AF00000F04CFB431C00D038BD2368002BFBD00A
:101B00002B6038BD4C0300209368002B73D02DE967
:101B1000F04F8B8983B00C4619070090164626D5E6
:101B2000226922B313F0020035682CD04FF000096F
:101B3000B04FC846B246B84543464A4628BF3B4622
:101B40000098B8F1000F50D0216AA66AB04700286B
:101B500058DDDAF808301B1A8144A8EB0008CAF8EF
:101B60000830002BE7D1002003B0BDE8F08F2146FC
:101B70000098FEF707FE002840F03381A3893568FE
:101B800013F00200D2D113F0010945D14F4601965E
:101B900037B39A05D4F8088040F183804745C3469F
:101BA000C0F0AB8013F4906F40F0AC802068BA4670
:101BB0005A46494600F036FAA2682368A2EB0802AA
:101BC0005B44A2602360019A9368A3EB0A03D144AB
:101BD000A7EB0A079360002BC5D0A389002FD8D1AB
:101BE000D5F800906F680835D2E7D5F80090D5F8A1
:101BF000048008359FE70020704721460098FEF7D3
:101C0000CFFE70B3B4F90C3043F040034FF0FF3017
:101C1000A38103B0BDE8F08F814633464E46A84607
:101C20009A464D464EB380B3206823696269B14538
:101C3000CB4628BFB34698425F4604D9A3681344F5
:101C40009B4500F3A68093454BDB1346A76A216AA8
:101C500000982A46B847071ED4DDB9EB0709CCD057
:101C60000120DAF80830DB1B3D44F61BCAF80830C7
:101C7000002B3FF478AF002ED5D108F1080313E90B
:101C8000600098460833002EF9D032460A212846D3
:101C900000F0DEF8002800F0A1800130A0EB05097B
:101CA000C2E720682369984202D863699F425DD2E7
:101CB000B84528BFB8464246494600F0B3F9A36884
:101CC0002268A3EB08034244A36022600BB1C24622
:101CD00079E721460098FEF763FE002892D1C246BC
:101CE00071E75A46294600F09DF9A2682368A2EBE5
:101CF0000B025B44A2602360AFE72068B846BA4697
:101D0000BB4655E762692068216902EB4208A0EBF7
:101D1000010A08EBD8780AF101004FEA6808384454
:101D20004045424684BF804642465B0544D5114645
:101D30000098FFF79BF88346002855D0524621694A
:101D400000F0D6F8A38923F4906343F08003A381C5
:101D50000BEB0A00A8EB0A03C4F810B0C4F8148017
:101D60002060A360B846BA46BB4621E76FF0004149
:101D7000B94228BF39464A4691FBF3F10098A66A5A
:101D800003FB01F3216AB047B0F1000A3FF71BAF34
:101D900038E71A462946019300F044F92268019B6E
:101DA00000981A4422602146FEF7FAFD019B0028A4
:101DB0007FF428AF1F4650E7009800F097F983465C
:101DC0000028C5D1009D21692846FFF707F8B4F91E
:101DD0000C300C2223F080032A6015E706F101097C
:101DE00022E74FF0FF30BFE6009A0C231360B4F9EE
:101DF0000C3009E700FCFF7F38B5074C002305468F
:101E00000846236000F0CAF9431C00D038BD23689F
:101E1000002BFBD02B6038BD4C03002070B50D4665
:101E2000084C114606461A4628460023236000F057
:101E3000BDF9431C00D070BD2368002BFBD033607C
:101E400070BD00BF4C030020000000000000000037
:101E500001F0FF01102A2BDB10F0070F08D010F85B
:101E6000013B013A8B422DD010F0070F42B3F6D15F
:101E7000F0B441EA012141EA014122F007047FF078
:101E800000070023F0E80256083C85EA010586EACF
:101E9000010685FA47F5A3FA87F586FA47F6A5FA0B
:101EA00087F68EB9EED1F0BC01F0FF0102F0070217
:101EB00032B110F8013B013A83EA010313B1F8D1C2
:101EC0000020704701387047002D06BF35460338A3
:101ED000073815F0010F07D1013015F4807F02BFDC
:101EE000013015F4C03F0130F0BC0138704700BF2D
:101EF000844641EA000313F003036DD1403A41D315
:101F000051F8043B40F8043B51F8043B40F8043BD3
:101F100051F8043B40F8043B51F8043B40F8043BC3
:101F200051F8043B40F8043B51F8043B40F8043BB3
:101F300051F8043B40F8043B51F8043B40F8043BA3
:101F400051F8043B40F8043B51F8043B40F8043B93
:101F500051F8043B40F8043B51F8043B40F8043B83
:101F600051F8043B40F8043B51F8043B40F8043B73
:101F700051F8043B40F8043B51F8043B40F8043B63
:101F8000403ABDD2303211D351F8043B40F8043B03
:101F900051F8043B40F8043B51F8043B40F8043B43
:101FA00051F8043B40F8043B103AEDD20C3205D313
:101FB00051F8043B40F8043B043AF9D2043208D00B
:101FC000D2071CBF11F8013B00F8013B01D30B887D
:101FD00003806046704700BF082A13D38B078DD05B
:101FE00010F003038AD0C3F10403D21ADB071CBF2D
:101FF00011F8013B00F8013B80D331F8023B20F897
:10200000023B7BE7043AD9D3013A11F8013B00F8CF
:10201000013BF9D20B7803704B7843708B78837057
:10202000604670478842F0B50DD98B1898420AD2A5
:102030008418002A51D0224613F8014D02F8014DB0
:102040009942F9D1F0BD0F2A48D941EA00039B0714
:1020500046D100F1100401F11003154653F8106C3D
:1020600044F8106C53F80C6C44F80C6C53F8086C82
:1020700044F8086C103D53F8046C44F8046C0F2DC0
:1020800003F1100304F11004E8D8A2F1100323F0C7
:102090000F0302F00F0E1033BEF1030F1944034477
:1020A00021D91E1F0D467446043C55F8047B46F8A2
:1020B000047F032CF8D8AEF1040424F003040434A4
:1020C0002144234402F0030262B1013B0A4411F8A7
:1020D000014B03F8014F8A42F9D1F0BD0346F3E703
:1020E0000346F2E7F0BD7246EEE700BFF8B51446CE
:1020F000F9B1C2B106460D4600F036F8844201D867
:102100002846F8BD21463046FEF7B0FE074670B1BE
:1021100022462946FFF7ECFE294630463D46FEF7AB
:102120005DFE2846F8BDFEF759FE2546E8E7054660
:10213000E6E71146BDE8F840FEF798BE70B50D46DB
:10214000084C114606461A4628460023236000F034
:1021500035F8431C00D070BD2368002BFBD03360E2
:1021600070BD00BF4C03002051F8040C0028A0F102
:102170000400BCBF0B58C018704700BF024B582268
:102180001A604FF0FF3070474C030020024B58227A
:102190001A604FF0FF3070474C030020024B58226A
:1021A0001A600020704700BF4C030020024B5822E9
:1021B0001A604FF0FF3070474C030020024B58224A
:1021C0001A604FF0FF3070474C030020044A054965
:1021D0001368002B08BF0B46184410601846704760
:1021E0009C0000205003002053B94AB9002908BFC1
:1021F00000281CBF4FF0FF314FF0FF3000F07AB9DC
:10220000ADF1080C6DE904CE00F006F8DDF804E04D
:10221000DDE9022304B070472DE9F0478C460D46F6
:102220000446089E002B51D18A4217466DD9B2FA56
:1022300082FEBEF1000F0BD0CEF1200C01FA0EF59C
:1022400020FA0CFC02FA0EF74CEA050C00FA0EF428
:102250004FEA174A250CBCFBFAF81FFA87F90AFB6C
:1022600018CC45EA0C4508FB09F3AB420AD9ED1935
:1022700008F1FF3280F02381AB4240F22081A8F1C7
:1022800002083D44ED1AA4B2B5FBFAF00AFB105562
:1022900044EA054400FB09F9A14509D9E41900F114
:1022A000FF3380F00A81A14540F2078102383C44A7
:1022B000A4EB090440EA08400021002E61D024FA72
:1022C0000EF4002334607360BDE8F0878B4207D9B9
:1022D000002E54D0002186E821000846BDE8F08792
:1022E000B3FA83F1002940F08E80AB4202D38242E0
:1022F00000F2FA80841A65EB03050120AC46002E3B
:102300003FD086E81010BDE8F08712B90127B7FB6F
:10231000F2F7B7FA87FEBEF1000F34D1EB1B3A0C8F
:102320001FFA87FC0121B3FBF2F8250C02FB1833DE
:1023300045EA03450CFB08F3AB4207D9ED1908F158
:10234000FF3002D2AB4200F2D1808046ED1AA3B238
:10235000B5FBF2F002FB105543EA05440CFB00FC10
:10236000A44507D9E41900F1FF3302D2A44500F2D5
:10237000B8801846A4EB0C0440EA08409DE73146BB
:102380003046BDE8F087CEF1200405FA0EF307FAD7
:102390000EF720FA04F83A0C25FA04F448EA030888
:1023A000B4FBF2F14FEA184502FB11441FFA87FC17
:1023B00045EA044501FB0CF3AB4200FA0EF409D9DF
:1023C000ED1901F1FF3080F08A80AB4240F2878046
:1023D00002393D44EB1A1FFA88F5B3FBF2F002FB19
:1023E000103345EA034500FB0CF3AB4207D9ED1966
:1023F00000F1FF386FD2AB426DD902383D44EB1A81
:1024000040EA01418FE7C1F1200722FA07F88B402B
:1024100005FA01F448EA030320FA07FE4FEA134CD9
:10242000FD404EEA040EB5FBFCF94FEA1E440CFBDE
:1024300019551FFA83F844EA054509FB08F4AC4234
:1024400002FA01F200FA01FA08D9ED1809F1FF3099
:1024500043D2AC4241D9A9F102091D442D1B1FFAF8
:102460008EFEB5FBFCF00CFB10554EEA054400FB5C
:1024700008F8A04507D9E41800F1FF3529D2A04596
:1024800027D902381C4440EA0940A4EB0804A0FB09
:1024900002894C45C6464D4615D312D056B1BAEB0B
:1024A0000E0364EB050404FA07F7CB401F43CC404E
:1024B000376074600021BDE8F0871846F8E6904662
:1024C000E0E6C245EAD2B8EB020E69EB030501383B
:1024D000E4E72846D7E7404691E78146BEE7014654
:1024E00078E702383C4445E7084608E7A8F10208C7
:1024F0003D442BE7704700BFFEE7000000B595B0F4
:10250000002101912F4B1A6C42F080521A641B6C0F
:1025100003F080530193019B02912B4B1A6842F404
:1025200040421A601B6803F440430293029B01235C
:1025300008934FF48033099302230E934FF48002E3
:102540000F92192210924FF4B47211921293042335
:10255000139308A804F082F938BB04F091FD40BB46
:102560000F23039302230493002305934FF4A053F6
:1025700006934FF480530793052103A804F08CFBC6
:10258000D8B904F035FC114BA3FB0030800904F0EE
:1025900007FE042004F01AFE002211464FF0FF301F
:1025A00004F0C0FD15B05DF804FBC7210848FFF733
:1025B000A3FFCE210648FFF79FFFDC210448FFF769
:1025C0009BFF00BF0038024000700040D34D6210F6
:1025D000D879000800B5A1B01BAC00231B931C9355
:1025E0001D931E931F9305F0F7F8FFF787FF00F088
:1025F00055F900F0B9F900F0FDFA6948FDF748FF18
:1026000000F07AFC01F046F803F0BAFA00F084FA20
:1026100003F026FB634B9A8863492046FDF762FF6F
:10262000624B019320230093F02228210A2003F01B
:10263000ADF95F4B019318230093F02250210A203B
:1026400003F0A4F95B4B0193102500952B46F02273
:102650006E210A2003F09AF9019400952B46F0228E
:1026600082210A2003F092F9534B01930C2300932B
:10267000F02296210A2003F089F969E04F4C2146A7
:102680004F48FDF77BFE0A224E492046FDF7C6FF64
:1026900078B10A224C494948FDF7C0FF20B30B220C
:1026A0004A494648FDF7BAFF18B3444800F094FA87
:1026B00053E0012100F1804000F5013004F0B0FC4E
:1026C000012808D001221146414804F0B0FC4148DD
:1026D000FDF7DEFEE9E7002201213D4804F0A7FCFA
:1026E0003D48FDF7D5FEE0E7AA211E2003F080FA61
:1026F000DBE702AC394D0FCD0FC42B6823605022AD
:10270000002107A8FDF7D6FD02A93548FDF736FEE2
:1027100002A8FDF715FF0246002102A803F0F8F910
:1027200064242246002102A8FDF7C4FD22460021B0
:1027300002A803F0FCF902A92A48FDF71FFEB4E73E
:1027400000220121224804F072FC0A2005F070F8F2
:102750001A4B93F8D030012B90D0002000F020FCD1
:102760000028F2D06421002000F002FA02AC0246F8
:102770001D492046FDF7B6FE019420230093F02268
:10278000AA210A2003F002F90121114804F048FCB3
:102790000128D5D0012211460D4804F048FCD4E7A9
:1027A000E47900086C020020087A0008147A000816
:1027B000287A0008347A0008447A0008A40000202F
:1027C000507A00085C7A0008787A0008847A000859
:1027D00000040240707A0008687A00081079000846
:1027E000907A00089C7A0008A87A00087047FEE7F3
:1027F000FEE7FEE7FEE770477047704708B505F053
:1028000005F804F0F3FC08BD10B582B00024009474
:10281000214B5A6C42F480425A645A6C02F4804252
:102820000092009A01941A6C42F080521A641B6C58
:1028300003F080530193019B032004F061FC2246C6
:1028400021466FF00B0004F06DFC224621466FF02C
:102850000A0004F067FC224621466FF0090004F0EC
:1028600061FC224621466FF0040004F05BFC224626
:1028700021466FF0030004F055FC224621466FF01C
:10288000010004F04FFC224621464FF0FF3004F0D7
:1028900049FC02B010BD00BF0038024070B586B0E0
:1028A000002300930E4B1A6B42F002021A631B6B5B
:1028B00003F002030093009B032601960124029477
:1028C000039402230493074D01A9284604F0B6FAA5
:1028D00022463146284604F0AAFB06B070BD00BF70
:1028E000003802400004024010B5064C00220121CD
:1028F000204604F09CFB00220221204604F097FBB6
:1029000010BD00BF0004024010B5064C0122114664
:10291000204604F08CFB00220221204604F087FBB5
:1029200010BD00BF0004024010B5064C002201217A
:10293000204604F07CFB01220221204604F077FBB4
:1029400010BD00BF0004024010B5064C0122114624
:10295000204604F06CFB01220221204604F067FBB4
:1029600010BD00BF00040240F0B589B000260096FB
:102970002F4B1A6B42F001021A631A6B02F001022C
:102980000092009A01961A6B42F004021A631A6BC5
:1029900002F004020192019A02961A6B42F0800240
:1029A0001A631B6B03F080030293029B01270397BA
:1029B000204B0493022405940325069503A91E4881
:1029C00004F03CFA4FF4005303931C4B0493059717
:1029D000069503A91A4804F031FA0C2303930695CF
:1029E0000DEB0301174804F029FA32462146062070
:1029F00004F098FB062004F0C7FB3A462146082065
:102A000004F090FB082004F0BFFB22462146092079
:102A100004F088FB092004F0B7FB2A462146282051
:102A200004F080FB282004F0AFFB09B0F0BD00BF2C
:102A30000038024000001110000002400000211088
:102A400000080240001C024010B501210F4804F0AC
:102A5000E7FAC0B900244FF400510D4804F0E0FA41
:102A600008B944F0040404210A4804F0D9FA08B96A
:102A700044F002040821074804F0D2FA08B944F0EF
:102A80000104204610BD0824E5E700BF0000024015
:102A900000080240001C024008B5012004F0CEFAF4
:102AA00008BD08B5042004F0C9FA08BD08B508201F
:102AB00004F0C4FA08BD08B54FF4005004F0BEFAA3
:102AC00008BD10B50446642004F0B2FE012C07D006
:102AD000082C0CD0042C11D0B4F5005F15D010BD1B
:102AE000FFF7B2FF0828F3D1FFF72EFFF0E7FFF75B
:102AF000ABFF0128EED1FFF7F7FEEBE7FFF7A4FFEE
:102B00000228E9D1FFF700FFE6E7FFF79DFF042861
:102B1000E5D1FFF709FFE2E708B50948094B036073
:102B200004F0E1FB30B9064B1B685B6813F0010F42
:102B3000F9D008BDB1210448FFF7DEFCF3E700BF80
:102B40007C01002000080650B47A000882B00023FF
:102B50000193064B5A6B42F040025A635B6B03F0E1
:102B600040030193019B02B0704700BF0038024050
:102B700038B505460C46054804F0F9FB631B0133E4
:102B8000B0FBF3F203FB1200284438BD7C010020A7
:102B900008B5024803F0F9F808BD00BFB0010020F5
:102BA00008B502680A4B9A4200D008BD01210948C5
:102BB00004F036FA012805D001221146054804F038
:102BC00036FAF2E700220121024804F030FA08BD8B
:102BD000000400400004024010B50446C822002151
:102BE000FDF768FB002384F8C830C4F8CC3084F8C3
:102BF000D03010BD10B50B4C0B4B23604FF4E133BC
:102C000063600023A360E3602361A3610C2363611D
:102C1000204603F0D3FC01220449204603F0FDFCCA
:102C200010BD00BFEC01002000440040A0000020C7
:102C300002681D4B9A4200D0704710B588B0002141
:102C4000019103F5FA331A6B42F001021A631A6B11
:102C500002F001020192019A02911A6C42F40032D0
:102C60001A641B6C03F400330293029B0423039346
:102C700002230493012205920693072307930B4C2A
:102C800003A9204604F0DAF80823039303A9204699
:102C900004F0D4F8262004F077FA03221146262007
:102CA00004F040FA08B010BD0044004000000240AB
:102CB00002680C4B9A4200D070470B4B93F8D0300F
:102CC000002BF9D110B5084C94F8C8305A1C84F880
:102CD000C820064A1278E25404F0A4FDC4F8CC00DF
:102CE00010BD00BF00440040A4000020A000002050
:102CF00010B50E4803F014FD00240C4803F0A8FDA5
:102D0000202805D00134B4F5003FF6D3002400E0BC
:102D1000002401220649054803F07FFC20B101345C
:102D2000B4F5003FF5D310BD10BD00BFEC0100208D
:102D3000A000002008B504F075FD084BD3F8CC3096
:102D4000C01A1E2808D9054A92F8D02022B91BB112
:102D50000122024B83F8D02008BD00BFA400002050
:102D600030B4002408E0074B1B6813F0400FFAD082
:102D70000D5D044B5D6001349442F4DB104630BCC1
:102D8000704700BF0044004070B584B00E4C4FF057
:102D90008043236000252561A560012666604FF011
:102DA000FF33E360204603F03BF90095019602955E
:102DB00003952A466946204603F09CF92946204699
:102DC00003F007FA04B070BD3002002000B589B0EE
:102DD00000220192114B196C41F001011964196C28
:102DE00001F00101019101990292196B41F0010179
:102DF00019631B6B03F001030293029B20230393CF
:102E0000022304930592032306930123079303A946
:102E1000034804F013F809B05DF804FB00380240E1
:102E200000000240F0B587B02027019701250295E8
:102E300002260396032304930E4C01A9204603F0B7
:102E4000FDFF00223946204604F0F1F8052004F089
:102E5000EFFC094B1A686FF0030313610023536200
:102E600002960393059501A9204603F0E7FF07B0FA
:102E7000F0BD00BF000002403002002008B5FFF79F
:102E8000D1FF094B1B681A6912F0020F06D15A6A6A
:102E900012F5FA7FF5D3586A80B208BD00210248C6
:102EA00002F049FF80B208BD30020020F8B54600AC
:102EB0000F4B83FB0636F6B20024254600E0384669
:102EC000431EDFB270B1FFF7D9FF0A4B1B6803EB5B
:102ED0008303B0EB930F01D90134E4B28542EED203
:102EE0000546ECE7B44200D200252846F8BD00BFF5
:102EF000565555552C02002030B587B0FFF744FFDA
:102F000000240BE0FFF7BAFF06AB03EB440323F802
:102F1000140C0A2004F08CFC0134E4B2092CF1D921
:102F200000201BE00133DBB2092B16D806AA02EB06
:102F3000400232F8142C06A901EB430131F8141CAD
:102F40008A42EFD906AC04EB400424F8141C06A90D
:102F500001EB430121F8142CE4E72846082803D8A4
:102F6000451CEDB22B46DFE70223002208E006A94C
:102F700001EB430131F8141C0A4492B20133DBB275
:102F8000072BF4D9044BA3FB0223C3F38F03034A9B
:102F90001360002007B030BDABAAAAAA2C02002003
:102FA00008B5D8B10022144B1A700620FFF77EFF37
:102FB000124B1B689A001249A1FB0212B0EB520F90
:102FC00010D903EB83035A00904213D20A4B1B78AB
:102FD00033B100200322084B1A7004E00320E5E718
:102FE0000120F7E70020044B1B7813B1013B024A94
:102FF000137008BD0020F6E7780100202C020020A5
:10300000ABAAAAAA82B0ADF80600BDF806309BB202
:103010004FF0C042138002B07047000082B0ADF89C
:103020000600BDF806309BB2014A138002B070471B
:1030300000000860014B188880B2704700000860EB
:103040004FF0C043188003F500231980704700003B
:10305000024B1A894FF0C0431A8070476C0200205F
:103060007E4B9B79012B19D02BB97C4B9A8841F66A
:1030700063139A4218D0794B9B8849F241329342AC
:103080002AD045F21032934226D045F21052934294
:1030900022D041F6631293421ED070476F4A918846
:1030A00041F663129142DFD00728E4D8DFE800F050
:1030B000120406080A0C0E100720DCE70420DAE7E9
:1030C0000520D8E70120D6E70020D4E70320D2E787
:1030D0000220D0E70620CEE710B50138062805D833
:1030E000DFE800F01206080A0C0E100000240CE0C5
:1030F00040240AE0C02408E0202406E0602404E024
:10310000A02402E0E02400E0802445F21052934223
:1031100050D0362045F21032934209D045F2105279
:10312000934205D041F66312934201D044F0080463
:103130002146FFF785FF494B9B8841F66312934276
:103140000AD014F0200F38D0444A11885288914296
:1031500002D242480280418045F21052934235D05B
:103160003E4C6089FFF74EFF0020FFF757FF00201D
:10317000FFF754FF20880138C0F30F20FFF74EFF00
:1031800020880138C0B2FFF749FFA089FFF73AFF56
:103190000020FFF743FF0020FFF740FF6088013861
:1031A000C0F30F20FFF73AFF60880138C0B2FFF785
:1031B00035FF10BD4FF45850ACE7284A11885288AB
:1031C0009142C9D9254802804180C5E7234C6089D6
:1031D000FFF718FF0020FFF721FF6089013080B260
:1031E000FFF710FF0020FFF719FF6089023080B25F
:1031F000FFF708FF20880138C0F30F20FFF70EFF0C
:103200006089033080B2FFF7FDFE20880138C0B22C
:10321000FFF704FFA089FFF7F5FE0020FFF7FEFE91
:10322000A089013080B2FFF7EDFE0020FFF7F6FE27
:10323000A089023080B2FFF7E5FE60880138C0F354
:103240000F20FFF7EBFEA089033080B2FFF7DAFE14
:1032500060880138C0B2FFF7E1FE10BD6C020020AB
:1032600008B54C4B9871002847D1F0221A804FF4D2
:10327000A0725A809B8849F24132934219D045F29C
:103280001032934215D045F21052934224D041F6A9
:103290006312934261D13F4B2C221A812B225A8117
:1032A0002A229A814FF4F0721A804FF448725A80A1
:1032B00053E0384A2C2111812A2151812B219181FF
:1032C00045F21032934248D1324B4FF4A0721A802B
:1032D0004FF4F0725A8040E02E4B4FF430521A8176
:1032E0004FF428525A814FF42C529A814FF4F072C5
:1032F0001A804FF448725A802FE0264B4FF4A07288
:103300001A80F0225A809B8849F24132934219D0A8
:1033100045F21032934215D045F21052934220D01C
:1033200041F66312934214D11A4A2C2111812A21A9
:1033300051812B2191814FF4487111804FF4F0712C
:10334000518006E0134A2C2111812A2151812B2121
:10335000918145F21032934214D00020FFF780FE95
:1033600008BD0C4A4FF4305111814FF4285151815E
:103370004FF42C5191814FF4487111804FF4F0714A
:103380005180E6E7034B4FF4F0721A804FF4A072BD
:103390005A80E2E76C02002070B505460C46444BAB
:1033A0009B8849F2413293420CD045F2103293424D
:1033B00008D041F66312934218D045F2105293425E
:1033C00058D070BD3A4E7089FFF71CFE280AFFF7EF
:1033D00025FEE8B2FFF722FEB089FFF713FE200AB0
:1033E000FFF71CFEE0B2FFF719FE70BD304B9B7972
:1033F00053BB2F4A13881D1AADB2013DADB250899F
:10340000FFF700FE0020FFF709FE0020FFF706FE91
:10341000280AFFF703FEE8B2FFF700FE244DA88953
:10342000FFF7F0FD200AFFF7F9FDE0B2FFF7F6FD28
:1034300068880138C0F30F20FFF7F0FD6888013875
:10344000C0B2FFF7EBFD70BD194E7089FFF7DAFDD2
:10345000280AFFF7E3FDE8B2FFF7E0FD3088013806
:10346000C0F30F20FFF7DAFD30880138C0B2FFF754
:10347000D5FDD3E70E4E7089FFF7C4FD280AFFF78C
:10348000CDFD7089013080B2FFF7BCFDE8B2FFF7D7
:10349000C5FDB089FFF7B6FD200AFFF7BFFDB08973
:1034A000013080B2FFF7AEFDE0B2FFF7B7FD88E76D
:1034B0006C0200202DE9F04104460D4616463D4BB6
:1034C0009B8849F24132934214D045F21032934224
:1034D00010D045F21052934220D041F6631293422D
:1034E0003AD0344B1889FFF78DFDB0B2FFF796FD47
:1034F000BDE8F0812F4F7889FFF784FD200AFFF7A0
:103500008DFDE0B2FFF78AFDB889FFF77BFD280A41
:10351000FFF784FDE8B2FFF781FDE2E7254F7889E8
:10352000FFF770FD200AFFF779FD7889013080B23E
:10353000FFF768FDE0B2FFF771FDB889FFF762FDA4
:10354000280AFFF76BFDB889013080B2FFF75AFDFA
:10355000E8B2FFF763FDC4E7164B9B792BB9154B17
:103560001B881C1AA4B2013CA4B2124F7889FFF741
:1035700049FD4FEA14284046FFF750FDE4B22046CB
:10358000FFF74CFD4046FFF749FD2046FFF746FD9B
:10359000B889FFF737FD2C0A2046FFF73FFDEDB253
:1035A0002846FFF73BFD2046FFF738FD2846FFF78A
:1035B00035FD96E76C02002070B50646094B1A8867
:1035C0005D8805FB02F500210846FFF7E5FEFFF7E1
:1035D0003FFD002403E0B0B2FFF720FD0134AC4210
:1035E000F9D370BD6C02002030B58BB0002201927F
:1035F000244B996B41F001019963996B01F0010132
:10360000019101990292196B41F002011963196B42
:1036100001F00201029102990392196B41F0080135
:103620001963196B01F008010391039904921A6B55
:1036300042F010021A631B6B03F010030493049B07
:103640004EF2B373059302230693012407940325D6
:1036500008950C23099305A90B4803F0EFFB4FF6DF
:103660008073059305A9094803F0E8FB202305931F
:1036700006940794089505A9054803F0DFFB0BB0F5
:1036800030BD00BF00380240000C02400010024074
:103690000004024010B58EB06F484FF02043036025
:1036A00003F58273436000238360C36003611022CB
:1036B00042618361C36143624FF480528262C3629C
:1036C0004FF480420263436383634FF48012C2630A
:1036D0000F2207920893462109910D9300920193BE
:1036E000029206936A4607A903F084FD322004F093
:1036F0009FF8D320FFF786FCFFF79CFC574CA08077
:10370000FFF798FCA080FFF795FC0002A080FFF770
:1037100091FCA388184380B2A08049F241339842BB
:103720004DD0D420FFF76EFCFFF784FCA080FFF79C
:1037300081FCA080FFF77EFC0002A080FFF77AFCEE
:10374000A388184380B2A08045F21033984236D047
:103750004FF45A40FFF756FCFFF76CFCA0804FF483
:103760005B40FFF74FFCFFF765FC0002A0804FF4C1
:103770005C40FFF747FCFFF75DFCA388184380B26D
:10378000A080B0F5004F5FD0344B9A8845F21053BB
:103790009A4214D0A120FFF735FCFFF74BFC2F4CC9
:1037A000A080FFF747FC0002A080FFF743FCA3883E
:1037B000184380B2A08045F26173984248D0274CEC
:1037C000A1882748FCF7DAFDA38849F241329342E9
:1037D0004CD045F21032934200F05D8145F2105218
:1037E000934201F0D1801D4B9B8849F241329342B4
:1037F0000BD045F21032934207D045F2105293425B
:1038000003D041F66312934210D1164B1A6822F08E
:103810000F021A601A6822F470621A601A6842F085
:1038200004021A601A6842F480621A600020FFF7EE
:1038300017FD012220210C4803F0F9FB4FF6FF7021
:10384000FFF7BAFE0EB010BD45F21052A2809BE702
:1038500041F66312A280B2E77C0200206C020020D5
:10386000C47A0008040100A000040240CF20FFF742
:10387000C9FB0020FFF7D2FBC120FFF7CFFB3020B0
:10388000FFF7CCFBED20FFF7BDFB6420FFF7C6FB85
:103890000320FFF7C3FB1220FFF7C0FB8120FFF7D7
:1038A000BDFBE820FFF7AEFB8520FFF7B7FB10203C
:1038B000FFF7B4FB7A20FFF7B1FBCB20FFF7A2FBA9
:1038C0003920FFF7ABFB2C20FFF7A8FB0020FFF708
:1038D000A5FB3420FFF7A2FB0220FFF79FFBF72098
:1038E000FFF790FB2020FFF799FBEA20FFF78AFB08
:1038F0000020FFF793FB0020FFF790FBC020FFF7AD
:1039000081FB1B20FFF78AFBC120FFF77BFB012017
:10391000FFF784FBC520FFF775FB3020FFF77EFB28
:103920003020FFF77BFBC720FFF76CFBB720FFF7CA
:1039300075FB3620FFF766FB4820FFF76FFB3A2048
:10394000FFF760FB5520FFF769FBB120FFF75AFB3B
:103950000020FFF763FB1A20FFF760FBB620FFF79C
:1039600051FB0A20FFF75AFBA220FFF757FBF2207A
:10397000FFF748FB0020FFF751FB2620FFF742FB33
:103980000120FFF74BFBE020FFF73CFB0F20FFF788
:1039900045FB2A20FFF742FB2820FFF73FFB0820CA
:1039A000FFF73CFB0E20FFF739FB0820FFF736FB43
:1039B0005420FFF733FBA920FFF730FB4320FFF72C
:1039C0002DFB0A20FFF72AFB0F20FFF727FB002023
:1039D000FFF724FB0020FFF721FB0020FFF71EFB71
:1039E0000020FFF71BFBE120FFF70CFB0020FFF797
:1039F00015FB1520FFF712FB1720FFF70FFB072021
:103A0000FFF70CFB1120FFF709FB0620FFF706FB71
:103A10002B20FFF703FB5620FFF700FB3C20FFF7AE
:103A2000FDFA0520FFF7FAFA1020FFF7F7FA0F204A
:103A3000FFF7F4FA3F20FFF7F1FA3F20FFF7EEFA25
:103A40000F20FFF7EBFA2B20FFF7DCFA0020FFF73F
:103A5000E5FA0020FFF7E2FA0120FFF7DFFA3F2046
:103A6000FFF7DCFA2A20FFF7CDFA0020FFF7D6FA9D
:103A70000020FFF7D3FA0020FFF7D0FAEF20FFF77E
:103A8000CDFA1120FFF7BEFA782003F0D1FE2920ED
:103A9000FFF7B8FAA7E6ED20FFF7B4FA0120FFF729
:103AA000BDFAFE20FFF7BAFAEE20FFF7ABFADE20F0
:103AB000FFF7B4FA2120FFF7B1FAF120FFF7A2FADD
:103AC0000120FFF7ABFADF20FFF79CFA1020FFF789
:103AD000A5FAC420FFF796FA8F20FFF79FFAC620B9
:103AE000FFF790FA0020FFF799FAE220FFF796FA25
:103AF000E220FFF793FAE220FFF790FABF20FFF7EA
:103B000081FAAA20FFF78AFAB020FFF77BFA0D208E
:103B1000FFF784FA0020FFF781FA0D20FFF77EFA05
:103B20000020FFF77BFA1120FFF778FA0020FFF75B
:103B300075FA1920FFF772FA0020FFF76FFA2120BB
:103B4000FFF76CFA0020FFF769FA2D20FFF766FAFD
:103B50000020FFF763FA3D20FFF760FA0020FFF72F
:103B60005DFA5D20FFF75AFA0020FFF757FA5D2053
:103B7000FFF754FA0020FFF751FAB120FFF742FA9D
:103B80008020FFF74BFA0020FFF748FA8B20FFF761
:103B900045FA0020FFF742FA9620FFF73FFA00208F
:103BA000FFF73CFAB220FFF72DFA0020FFF736FAB4
:103BB0000020FFF733FA0220FFF730FA0020FFF76A
:103BC0002DFA0320FFF72AFA0020FFF727FAB32087
:103BD000FFF718FA0020FFF721FA0020FFF71EFA7E
:103BE0000020FFF71BFA0020FFF718FA0020FFF76C
:103BF00015FA0020FFF712FA0020FFF70FFA002055
:103C0000FFF70CFA0020FFF709FA0020FFF706FA89
:103C10000020FFF703FA0020FFF700FA0020FFF76B
:103C2000FDF90020FFF7FAF90020FFF7F7F900206F
:103C3000FFF7F4F90020FFF7F1F90020FFF7EEF9A4
:103C40000020FFF7EBF90020FFF7E8F90020FFF76D
:103C5000E5F90020FFF7E2F90020FFF7DFF9002087
:103C6000FFF7DCF9B420FFF7CDF98B20FFF7D6F989
:103C70000020FFF7D3F99620FFF7D0F90020FFF7D7
:103C8000CDF9A120FFF7CAF90020FFF7C7F9B52049
:103C9000FFF7B8F90220FFF7C1F90020FFF7BEF9DE
:103CA0000320FFF7BBF90020FFF7B8F90420FFF766
:103CB000B5F90020FFF7B2F9B620FFF7A3F900200D
:103CC000FFF7ACF90020FFF7A9F9B720FFF79AF941
:103CD0000020FFF7A3F90020FFF7A0F93F20FFF72E
:103CE0009DF90020FFF79AF95E20FFF797F9002071
:103CF000FFF794F96420FFF791F90020FFF78EF9A0
:103D00008C20FFF78BF90020FFF788F9AC20FFF734
:103D100085F90020FFF782F9DC20FFF77FF900200A
:103D2000FFF77CF97020FFF779F90020FFF776F9AB
:103D30009020FFF773F90020FFF770F9EB20FFF7F1
:103D40006DF90020FFF76AF9DC20FFF767F9002022
:103D5000FFF764F9B820FFF755F90020FFF75EF987
:103D60000020FFF75BF90020FFF758F90020FFF76C
:103D700055F90020FFF752F90020FFF74FF9002016
:103D8000FFF74CF90020FFF749F9BA20FFF73AF99D
:103D90002420FFF743F90020FFF740F90020FFF748
:103DA0003DF90020FFF73AF9C120FFF72BF9202059
:103DB000FFF734F90020FFF731F95420FFF72EF90F
:103DC0000020FFF72BF9FF20FFF728F90020FFF76D
:103DD00025F9C220FFF716F90A20FFF71FF9002086
:103DE000FFF71CF90420FFF719F90020FFF716F977
:103DF000C320FFF707F93C20FFF710F90020FFF779
:103E00000DF93A20FFF70AF90020FFF707F93920EA
:103E1000FFF704F90020FFF701F93720FFF7FEF85C
:103E20000020FFF7FBF83C20FFF7F8F80020FFF731
:103E3000F5F83620FFF7F2F80020FFF7EFF8322010
:103E4000FFF7ECF80020FFF7E9F82F20FFF7E6F87E
:103E50000020FFF7E3F82C20FFF7E0F80020FFF741
:103E6000DDF82920FFF7DAF80020FFF7D7F8262041
:103E7000FFF7D4F80020FFF7D1F82420FFF7CEF8A1
:103E80000020FFF7CBF82420FFF7C8F80020FFF749
:103E9000C5F82320FFF7C2F80020FFF7BFF83C2049
:103EA000FFF7BCF80020FFF7B9F83620FFF7B6F8A7
:103EB0000020FFF7B3F83220FFF7B0F80020FFF73B
:103EC000ADF82F20FFF7AAF80020FFF7A7F82C2065
:103ED000FFF7A4F80020FFF7A1F82920FFF79EF8CC
:103EE0000020FFF79BF82620FFF798F80020FFF747
:103EF00095F82420FFF792F80020FFF78FF8242090
:103F0000FFF78CF80020FFF789F82320FFF786F8E9
:103F10000020FFF783F8C420FFF774F86220FFF752
:103F20007DF80020FFF77AF80520FFF777F80020EA
:103F3000FFF774F88420FFF771F80020FFF76EF8A0
:103F4000F020FFF76BF80020FFF768F81820FFF764
:103F500065F80020FFF762F8A420FFF75FF8002063
:103F6000FFF75CF81820FFF759F80020FFF756F824
:103F70005020FFF753F80020FFF750F80C20FFF710
:103F80004DF80020FFF74AF81720FFF747F8002008
:103F9000FFF744F89520FFF741F80020FFF73EF8BF
:103FA000F320FFF73BF80020FFF738F8E620FFF793
:103FB00035F80020FFF732F8C520FFF723F832204C
:103FC000FFF72CF80020FFF729F84420FFF726F828
:103FD0000020FFF723F86520FFF720F80020FFF707
:103FE0001DF87620FFF71AF80020FFF717F8882051
:103FF000FFF714F80020FFF711F8C620FFF702F8CA
:104000002020FFF70BF80020FFF708F81720FFF734
:1040100005F80020FFF702F80120FEF7FFFF00205F
:10402000FEF7FCFFC720FEF7EDFF0020FEF7F6FFCE
:104030000020FEF7F3FF0020FEF7F0FF0020FEF760
:10404000EDFFC820FEF7DEFF0020FEF7E7FF0020AF
:10405000FEF7E4FF0020FEF7E1FF0020FEF7DEFFA1
:10406000C920FEF7CFFF0020FEF7D8FF0020FEF7A3
:10407000D5FF0020FEF7D2FF0020FEF7CFFF002083
:10408000FEF7CCFF0020FEF7C9FF0020FEF7C6FFB9
:104090000020FEF7C3FF0020FEF7C0FF0020FEF760
:1040A000BDFF0020FEF7BAFF0020FEF7B7FF00209B
:1040B000FEF7B4FF0020FEF7B1FF0020FEF7AEFFD1
:1040C0000020FEF7ABFFE020FEF79CFF1620FEF776
:1040D000A5FF0020FEF7A2FF1C20FEF79FFF002097
:1040E000FEF79CFF2120FEF799FF0020FEF796FFC8
:1040F0003620FEF793FF0020FEF790FF4620FEF7E4
:104100008DFF0020FEF78AFF5220FEF787FF002078
:10411000FEF784FF6420FEF781FF0020FEF77EFF9C
:104120007A20FEF77BFF0020FEF778FF8B20FEF75A
:1041300075FF0020FEF772FF9920FEF76FFF002049
:10414000FEF76CFFA820FEF769FF0020FEF766FF70
:10415000B920FEF763FF0020FEF760FFC420FEF7E2
:104160005DFF0020FEF75AFFCA20FEF757FF002030
:10417000FEF754FFD220FEF751FF0020FEF74EFF5E
:10418000D920FEF74BFF0020FEF748FFE020FEF7A6
:1041900045FF0020FEF742FFF320FEF73FFF00201F
:1041A000FEF73CFFE120FEF72DFF1620FEF736FF5D
:1041B0000020FEF733FF1C20FEF730FF0020FEF743
:1041C0002DFF2220FEF72AFF0020FEF727FF3620D2
:1041D000FEF724FF0020FEF721FF4520FEF71EFF1B
:1041E0000020FEF71BFF5220FEF718FF0020FEF70D
:1041F00015FF6420FEF712FF0020FEF70FFF7A2064
:10420000FEF70CFF0020FEF709FF8B20FEF706FFEC
:104210000020FEF703FF9920FEF700FF0020FEF7C5
:10422000FDFEA820FEF7FAFE0020FEF7F7FEB920FB
:10423000FEF7F4FE0020FEF7F1FEC420FEF7EEFECE
:104240000020FEF7EBFECA20FEF7E8FE0020FEF796
:10425000E5FED220FEF7E2FE0020FEF7DFFED820CA
:10426000FEF7DCFE0020FEF7D9FEE020FEF7D6FECA
:104270000020FEF7D3FEF320FEF7D0FE0020FEF76D
:10428000CDFEE220FEF7BEFE0520FEF7C7FE0020B1
:10429000FEF7C4FE0B20FEF7C1FE0020FEF7BEFEB7
:1042A0001B20FEF7BBFE0020FEF7B8FE3420FEF711
:1042B000B5FE0020FEF7B2FE4420FEF7AFFE002060
:1042C000FEF7ACFE4F20FEF7A9FE0020FEF7A6FE8B
:1042D0006120FEF7A3FE0020FEF7A0FE7920FEF786
:1042E0009DFE0020FEF79AFE8820FEF797FE002034
:1042F000FEF794FE9720FEF791FE0020FEF78EFE5B
:10430000A620FEF78BFE0020FEF788FEB720FEF702
:1043100085FE0020FEF782FEC220FEF77FFE002011
:10432000FEF77CFEC720FEF779FE0020FEF776FE42
:10433000D120FEF773FE0020FEF770FED620FEF7B8
:104340006DFE0020FEF76AFEDD20FEF767FE00200E
:10435000FEF764FEF320FEF761FE0020FEF75EFE2E
:10436000E320FEF74FFE0520FEF758FE0020FEF783
:1043700055FE0A20FEF752FE0020FEF74FFE1C20DD
:10438000FEF74CFE0020FEF749FE3320FEF746FE06
:104390000020FEF743FE4420FEF740FE0020FEF71B
:1043A0003DFE5020FEF73AFE0020FEF737FE622069
:1043B000FEF734FE0020FEF731FE7820FEF72EFED9
:1043C0000020FEF72BFE8820FEF728FE0020FEF7D7
:1043D00025FE9720FEF722FE0020FEF71FFEA620F6
:1043E000FEF71CFE0020FEF719FEB720FEF716FEB2
:1043F0000020FEF713FEC220FEF710FE0020FEF79D
:104400000DFEC720FEF70AFE0020FEF707FED120B2
:10441000FEF704FE0020FEF701FED520FEF7FEFDAC
:104420000020FEF7FBFDDD20FEF7F8FD0020FEF783
:10443000F5FDF320FEF7F2FD0020FEF7EFFDE4208E
:10444000FEF7E0FD0120FEF7E9FD0020FEF7E6FDA6
:104450000120FEF7E3FD0020FEF7E0FD0220FEF75D
:10446000DDFD0020FEF7DAFD2A20FEF7D7FD002053
:10447000FEF7D4FD3C20FEF7D1FD0020FEF7CEFD77
:104480004B20FEF7CBFD0020FEF7C8FD5D20FEF7B8
:10449000C5FD0020FEF7C2FD7420FEF7BFFD002021
:1044A000FEF7BCFD8420FEF7B9FD0020FEF7B6FD47
:1044B0009320FEF7B3FD0020FEF7B0FDA220FEF72B
:1044C000ADFD0020FEF7AAFDB320FEF7A7FD0020FA
:1044D000FEF7A4FDBE20FEF7A1FD0020FEF79EFD25
:1044E000C420FEF79BFD0020FEF798FDCD20FEF7CF
:1044F00095FD0020FEF792FDD320FEF78FFD0020F2
:10450000FEF78CFDDD20FEF789FD0020FEF786FD1D
:10451000F320FEF783FD0020FEF780FDE520FEF787
:1045200071FD0020FEF77AFD0020FEF777FD0020E8
:10453000FEF774FD0020FEF771FD0220FEF76EFD10
:104540000020FEF76BFD2920FEF768FD0020FEF736
:1045500065FD3C20FEF762FD0020FEF75FFD4B206D
:10456000FEF75CFD0020FEF759FD5D20FEF756FDCD
:104570000020FEF753FD7420FEF750FD0020FEF7EB
:104580004DFD8420FEF74AFD0020FEF747FD9320F5
:10459000FEF744FD0020FEF741FDA220FEF73EFDA0
:1045A0000020FEF73BFDB320FEF738FD0020FEF7AC
:1045B00035FDBE20FEF732FD0020FEF72FFDC420A2
:1045C000FEF72CFD0020FEF729FDCD20FEF726FD8D
:1045D0000020FEF723FDD320FEF720FD0020FEF78C
:1045E0001DFDDC20FEF71AFD0020FEF717FDF3206D
:1045F000FEF714FD0020FEF711FDE620FEF702FD98
:104600001120FEF70BFD0020FEF708FD3420FEF719
:1046100005FD0020FEF702FD5620FEF7FFFC0020FE
:10462000FEF7FCFC7620FEF7F9FC0020FEF7F6FC16
:104630007720FEF7F3FC0020FEF7F0FC6620FEF783
:10464000EDFC0020FEF7EAFC8820FEF7E7FC0020E6
:10465000FEF7E4FC9920FEF7E1FC0020FEF7DEFC0B
:10466000BB20FEF7DBFC0020FEF7D8FC9920FEF70C
:10467000D5FC0020FEF7D2FC6620FEF7CFFC002020
:10468000FEF7CCFC5520FEF7C9FC0020FEF7C6FC67
:104690005520FEF7C3FC0020FEF7C0FC4520FEF7C6
:1046A000BDFC0020FEF7BAFC4320FEF7B7FC00205B
:1046B000FEF7B4FC4420FEF7B1FC0020FEF7AEFC90
:1046C000E720FEF79FFC3220FEF7A8FC0020FEF753
:1046D000A5FC5520FEF7A2FC0020FEF79FFC7620EB
:1046E000FEF79CFC0020FEF799FC6620FEF796FC86
:1046F0000020FEF793FC6720FEF790FC0020FEF7F9
:104700008DFC6720FEF78AFC0020FEF787FC8720DF
:10471000FEF784FC0020FEF781FC9920FEF77EFC6A
:104720000020FEF77BFCBB20FEF778FC0020FEF7A4
:1047300075FC9920FEF772FC0020FEF76FFC7720D5
:10474000FEF76CFC0020FEF769FC4420FEF766FCD7
:104750000020FEF763FC5620FEF760FC0020FEF709
:104760005DFC2320FEF75AFC0020FEF757FC3320A7
:10477000FEF754FC0020FEF751FC4520FEF74EFCEE
:104780000020FEF74BFCE820FEF73CFC0020FEF783
:1047900045FC0020FEF742FC9920FEF73FFC00207C
:1047A000FEF73CFC8720FEF739FC0020FEF736FCC4
:1047B0008820FEF733FC0020FEF730FC7720FEF760
:1047C0002DFC0020FEF72AFC6620FEF727FC0020C7
:1047D000FEF724FC8820FEF721FC0020FEF71EFCDB
:1047E000AA20FEF71BFC0020FEF718FCBB20FEF7FA
:1047F00015FC0020FEF712FC9920FEF70FFC0020AC
:10480000FEF70CFC6620FEF709FC0020FEF706FC14
:104810005520FEF703FC0020FEF700FC5520FEF7B4
:10482000FDFB0020FEF7FAFB4420FEF7F7FB00201B
:10483000FEF7F4FB4420FEF7F1FB0020FEF7EEFB51
:104840005520FEF7EBFB0020FEF7E8FBE920FEF722
:10485000D9FBAA20FEF7E2FB0020FEF7DFFB0020D9
:10486000FEF7DCFB0020FEF7D9FB0020FEF7CAFBB9
:10487000AA20FEF7D3FBCF20FEF7C4FB0020FEF7F3
:10488000CDFB0020FEF7CAFB0020FEF7C7FB00208F
:10489000FEF7C4FB0020FEF7C1FB0020FEF7BEFBC5
:1048A0000020FEF7BBFB0020FEF7B8FB0020FEF760
:1048B000B5FB0020FEF7B2FB0020FEF7AFFB0020A7
:1048C000FEF7ACFB0020FEF7A9FB0020FEF7A6FBDD
:1048D0000020FEF7A3FB0020FEF7A0FB0020FEF760
:1048E0009DFBF020FEF78EFB0020FEF797FB50208B
:1048F000FEF794FB0020FEF791FB0020FEF78EFBF5
:104900000020FEF78BFBF320FEF77CFB0020FEF778
:1049100085FBF920FEF776FB0620FEF77FFB1020D3
:10492000FEF77CFB2920FEF779FB0020FEF776FBE3
:104930003A20FEF767FB5520FEF770FB1120FEF7CB
:1049400061FB642002F074FF2920FEF75BFB352039
:10495000FEF758FB0020FEF761FB5120FEF752FBEB
:10496000FF20FEF75BFB5320FEF74CFB2C20FEF7ED
:1049700055FB5520FEF746FB8220FEF74FFB2C200F
:10498000FEF740FBFEF72FBF55214FF47040FEF7B6
:1049900057FBAA214FF20100FEF752FB52214FF2C2
:1049A0000200FEF74DFB08214FF20300FEF748FB23
:1049B00001214FF20400FEF743FB0D214FF430407C
:1049C000FEF73EFB0D214BF20100FEF739FB0D21F6
:1049D0004BF20200FEF734FB34214FF43640FEF771
:1049E0002FFB34214BF20160FEF72AFB34214BF2FE
:1049F0000260FEF725FB0D214FF43140FEF720FB4E
:104A00000D214BF20110FEF71BFB0D214BF20210A2
:104A1000FEF716FB34214FF43740FEF711FB34212B
:104A20004BF20170FEF70CFB34214BF20270FEF7E3
:104A300007FB00214FF43240FEF702FB00214BF24E
:104A40000120FEF7FDFA00214BF20220FEF7F8FAF2
:104A500024214FF43840FEF7F3FA24214BF60100ED
:104A6000FEF7EEFA24214BF60200FEF7E9FA0121E7
:104A70004FF43F40FEF7E4FA0F214FF43340FEF7C6
:104A8000DFFA0F214BF20130FEF7DAFA0F214BF279
:104A90000230FEF7D5FA34214FF43940FEF7D0FA50
:104AA00034214BF60110FEF7CBFA34214BF60210FD
:104AB000FEF7C6FA08214FF43540FEF7C1FA082187
:104AC0004BF20150FEF7BCFA08214BF20250FEF700
:104AD000B7FA03214FF44240FEF7B2FA24214FF413
:104AE0003A40FEF7ADFA24214BF60120FEF7A8FA72
:104AF00024214BF60220FEF7A3FA00214FF43C409C
:104B0000FEF79EFA78214BF60140FEF799FA002154
:104B10004BF60240FEF794FA00214FF43D40FEF7B9
:104B20008FFA78214BF60150FEF78AFA00214BF6F6
:104B30000250FEF785FA00214FF43E40FEF780FA5E
:104B400064214BF60160FEF77BFA00214FF45140DF
:104B5000FEF776FA33214DF20110FEF771FA0021CB
:104B60004DF20210FEF76CFA34214DF20310FEF7FD
:104B700067FA00214DF20410FEF762FA3A214DF275
:104B80000510FEF75DFA00214DF20610FEF758FA07
:104B90004A214DF20710FEF753FA00214DF208109A
:104BA000FEF74EFA5C214DF20910FEF749FA00219A
:104BB0004DF20A10FEF744FA81214DF20B10FEF778
:104BC0003FFA00214DF20C10FEF73AFAA6214DF201
:104BD0000D10FEF735FA00214DF20E10FEF730FAF7
:104BE000E5214DF20F10FEF72BFA01214DF21010C6
:104BF000FEF726FA13214DF21110FEF721FA0121DA
:104C00004DF21210FEF71CFA54214DF21310FEF76C
:104C100017FA01214DF21410FEF712FA82214DF21B
:104C20001510FEF70DFA01214DF21610FEF708FAE5
:104C3000CA214DF21710FEF703FA02214DF21810A7
:104C4000FEF7FEF900214DF21910FEF7F9F90221E5
:104C50004DF21A10FEF7F4F901214DF21B10FEF788
:104C6000EFF902214DF21C10FEF7EAF934214DF262
:104C70001D10FEF7E5F902214DF21E10FEF7E0F9D6
:104C800067214DF21F10FEF7DBF902214DF22010D3
:104C9000FEF7D6F984214DF22110FEF7D1F9022159
:104CA0004DF22210FEF7CCF9A4214DF22310FEF7AD
:104CB000C7F902214DF22410FEF7C2F9B7214DF2D7
:104CC0002510FEF7BDF902214DF22610FEF7B8F9C6
:104CD000CF214DF22710FEF7B3F902214DF2281033
:104CE000FEF7AEF9DE214DF22910FEF7A9F90221F7
:104CF0004DF22A10FEF7A4F9F2214DF22B10FEF727
:104D00009FF902214DF22C10FEF79AF9FE214DF287
:104D10002D10FEF795F903214DF22E10FEF790F9B4
:104D200010214DF22F10FEF78BF903214DF23010B8
:104D3000FEF786F933214DF23110FEF781F9032198
:104D40004DF23210FEF77CF96D214DF23310FEF773
:104D500077F900214FF45240FEF772F933214DF2FA
:104D60000120FEF76DF900214DF20220FEF768F9EF
:104D700034214DF20320FEF763F900214DF20420A7
:104D8000FEF75EF93A214DF20520FEF759F90021B0
:104D90004DF20620FEF754F94A214DF20720FEF7A6
:104DA0004FF900214DF20820FEF74AF95C214DF23F
:104DB0000920FEF745F900214DF20A20FEF740F9DF
:104DC00081214DF20B20FEF73BF900214DF20C2022
:104DD000FEF736F9A6214DF20D20FEF731F900213C
:104DE0004DF20E20FEF72CF9E5214DF20F20FEF7D3
:104DF00027F901214DF21020FEF722F913214DF27F
:104E00001120FEF71DF901214DF21220FEF718F9CD
:104E100054214DF21320FEF713F901214DF2142015
:104E2000FEF70EF982214DF21520FEF709F9012156
:104E30004DF21620FEF704F9CA214DF21720FEF7B5
:104E4000FFF802214DF21820FEF7FAF800214DF28A
:104E50001920FEF7F5F802214DF21A20FEF7F0F8BE
:104E600001214DF21B20FEF7EBF802214DF21C2030
:104E7000FEF7E6F834214DF21D20FEF7E1F802219D
:104E80004DF21E20FEF7DCF867214DF21F20FEF7E1
:104E9000D7F802214DF22020FEF7D2F884214DF2FE
:104EA0002120FEF7CDF802214DF22220FEF7C8F8AE
:104EB000A4214DF22320FEF7C3F802214DF2242055
:104EC000FEF7BEF8B7214DF22520FEF7B9F8022112
:104ED0004DF22620FEF7B4F8CF214DF22720FEF741
:104EE000AFF802214DF22820FEF7AAF8DE214DF29C
:104EF0002920FEF7A5F802214DF22A20FEF7A0F89E
:104F0000F2214DF22B20FEF79BF802214DF22C20CE
:104F1000FEF796F8FE214DF22D20FEF791F80321C1
:104F20004DF22E20FEF78CF810214DF22F20FEF7C7
:104F300087F803214DF23020FEF782F833214DF23D
:104F40003120FEF77DF803214DF23220FEF778F88C
:104F50006D214DF23320FEF773F800214FF45340DA
:104F6000FEF76EF833214DF20130FEF769F80021AB
:104F70004DF20230FEF764F834214DF20330FEF7B3
:104F80005FF800214DF20430FEF75AF83A214DF255
:104F90000530FEF755F800214DF20630FEF750F8C7
:104FA0004A214DF20730FEF74BF800214DF2083050
:104FB000FEF746F85C214DF20930FEF741F800217A
:104FC0004DF20A30FEF73CF881214DF20B30FEF72E
:104FD00037F800214DF20C30FEF732F8A6214DF2E1
:104FE0000D30FEF72DF800214DF20E30FEF728F8B7
:104FF000E5214DF20F30FEF723F801214DF210307C
:10500000FEF71EF813214DF21130FEF719F80121B9
:105010004DF21230FEF714F854214DF21330FEF722
:105020000FF801214DF21430FEF70AF882214DF2FB
:105030001530FEF705F801214DF21630FEF700F8A5
:10504000CA214DF21730FDF7FBFF02214DF2183057
:10505000FDF7F6FF00214DF21930FDF7F1FF0221B7
:105060004DF21A30FDF7ECFF01214DF21B30FDF738
:10507000E7FF02214DF21C30FDF7E2FF34214DF233
:105080001D30FDF7DDFF02214DF21E30FDF7D8FF88
:1050900067214DF21F30FDF7D3FF02214DF2203082
:1050A000FDF7CEFF84214DF22130FDF7C9FF02212B
:1050B0004DF22230FDF7C4FFA4214DF22330FDF75D
:1050C000BFFF02214DF22430FDF7BAFFB7214DF2A8
:1050D0002530FDF7B5FF02214DF22630FDF7B0FF78
:1050E000CF214DF22730FDF7ABFF02214DF22830E2
:1050F000FDF7A6FFDE214DF22930FDF7A1FF0221C9
:105100004DF22A30FDF79CFFF2214DF22B30FDF7D6
:1051100097FF02214DF22C30FDF792FFFE214DF258
:105120002D30FDF78DFF03214DF22E30FDF788FF66
:1051300010214DF22F30FDF783FF03214DF2303067
:10514000FDF77EFF33214DF23130FDF779FF03216A
:105150004DF23230FDF774FF6D214DF23330FDF723
:105160006FFF00214FF45440FDF76AFF33214DF2E9
:105170000140FDF765FF00214DF20240FDF760FFA1
:1051800034214DF20340FDF75BFF00214DF2044056
:10519000FDF756FF3A214DF20540FDF751FF002182
:1051A0004DF20640FDF74CFF4A214DF20740FDF756
:1051B00047FF00214DF20840FDF742FF5C214DF210
:1051C0000940FDF73DFF00214DF20A40FDF738FF91
:1051D00081214DF20B40FDF733FF00214DF20C40D1
:1051E000FDF72EFFA6214DF20D40FDF729FF00210E
:1051F0004DF20E40FDF724FFE5214DF20F40FDF783
:105200001FFF01214DF21040FDF71AFF13214DF24F
:105210001140FDF715FF01214DF21240FDF710FF7F
:1052200054214DF21340FDF70BFF01214DF21440C4
:10523000FDF706FF82214DF21540FDF701FF012128
:105240004DF21640FDF7FCFECA214DF21740FDF766
:10525000F7FE02214DF21840FDF7F2FE00214DF25B
:105260001940FDF7EDFE02214DF21A40FDF7E8FE70
:1052700001214DF21B40FDF7E3FE02214DF21C40DF
:10528000FDF7DEFE34214DF21D40FDF7D9FE02216F
:105290004DF21E40FDF7D4FE67214DF21F40FDF791
:1052A000CFFE02214DF22040FDF7CAFE84214DF2CF
:1052B0002140FDF7C5FE02214DF22240FDF7C0FE60
:1052C000A4214DF22340FDF7BBFE02214DF2244004
:1052D000FDF7B6FEB7214DF22540FDF7B1FE0221E4
:1052E0004DF22640FDF7ACFECF214DF22740FDF7F1
:1052F000A7FE02214DF22840FDF7A2FEDE214DF26D
:105300002940FDF79DFE02214DF22A40FDF798FE4F
:10531000F2214DF22B40FDF793FE02214DF22C407D
:10532000FDF78EFEFE214DF22D40FDF789FE032193
:105330004DF22E40FDF784FE10214DF22F40FDF777
:105340007FFE03214DF23040FDF77AFE33214DF20E
:105350003140FDF775FE03214DF23240FDF770FE3E
:105360006D214DF23340FDF76BFE00214FF45540A7
:10537000FDF766FE33214DF20150FDF761FE00217D
:105380004DF20250FDF75CFE34214DF20350FDF763
:1053900057FE00214DF20450FDF752FE3A214DF226
:1053A0000550FDF74DFE00214DF20650FDF748FE79
:1053B0004A214DF20750FDF743FE00214DF20850FF
:1053C000FDF73EFE5C214DF20950FDF739FE00214C
:1053D0004DF20A50FDF734FE81214DF20B50FDF7DE
:1053E0002FFE00214DF20C50FDF72AFEA6214DF2B2
:1053F0000D50FDF725FE00214DF20E50FDF720FE69
:10540000E5214DF20F50FDF71BFE01214DF210502A
:10541000FDF716FE13214DF21150FDF711FE01218B
:105420004DF21250FDF70CFE54214DF21350FDF7D2
:1054300007FE01214DF21450FDF702FE82214DF2CC
:105440001550FDF7FDFD01214DF21650FDF7F8FD59
:10545000CA214DF21750FDF7F3FD02214DF218500D
:10546000FDF7EEFD00214DF21950FDF7E9FD022197
:105470004DF21A50FDF7E4FD01214DF21B50FDF7EE
:10548000DFFD02214DF21C50FDF7DAFD34214DF213
:105490001D50FDF7D5FD02214DF21E50FDF7D0FD48
:1054A00067214DF21F50FDF7CBFD02214DF2205038
:1054B000FDF7C6FD84214DF22150FDF7C1FD02210B
:1054C0004DF22250FDF7BCFDA4214DF22350FDF713
:1054D000B7FD02214DF22450FDF7B2FDB7214DF288
:1054E0002550FDF7ADFD02214DF22650FDF7A8FD38
:1054F000CF214DF22750FDF7A3FD02214DF2285098
:10550000FDF79EFDDE214DF22950FDF799FD0221A8
:105510004DF22A50FDF794FDF2214DF22B50FDF78C
:105520008FFD02214DF22C50FDF78AFDFE214DF238
:105530002D50FDF785FD03214DF22E50FDF780FD26
:1055400010214DF22F50FDF77BFD03214DF230501D
:10555000FDF776FD33214DF23150FDF771FD03214A
:105560004DF23250FDF76CFD6D214DF23350FDF7D9
:1055700067FD00214FF45640FDF762FD33214DF2E7
:105580000160FDF75DFD00214DF20260FDF758FD61
:1055900034214DF20360FDF753FD00214DF204600C
:1055A000FDF74EFD3A214DF20560FDF749FD002162
:1055B0004DF20660FDF744FD4A214DF20760FDF70C
:1055C0003FFD00214DF20860FDF73AFD5C214DF2F0
:1055D0000960FDF735FD00214DF20A60FDF730FD51
:1055E00081214DF20B60FDF72BFD00214DF20C6087
:1055F000FDF726FDA6214DF20D60FDF721FD0021EE
:105600004DF20E60FDF71CFDE5214DF20F60FDF738
:1056100017FD01214DF21060FDF712FD13214DF22F
:105620001160FDF70DFD01214DF21260FDF708FD3F
:1056300054214DF21360FDF703FD01214DF214607A
:10564000FDF7FEFC82214DF21560FDF7F9FC01210A
:105650004DF21660FDF7F4FCCA214DF21760FDF71C
:10566000EFFC02214DF21860FDF7EAFC00214DF23B
:105670001960FDF7E5FC02214DF21A60FDF7E0FC30
:1056800001214DF21B60FDF7DBFC02214DF21C6095
:10569000FDF7D6FC34214DF21D60FDF7D1FC02214F
:1056A0004DF21E60FDF7CCFC67214DF21F60FDF747
:1056B000C7FC02214DF22060FDF7C2FC84214DF2AF
:1056C0002160FDF7BDFC02214DF22260FDF7B8FC20
:1056D000A4214DF22360FDF7B3FC02214DF22460BA
:1056E000FDF7AEFCB7214DF22560FDF7A9FC0221C4
:1056F0004DF22660FDF7A4FCCF214DF22760FDF7A7
:105700009FFC02214DF22860FDF79AFCDE214DF24C
:105710002960FDF795FC02214DF22A60FDF790FC0F
:10572000F2214DF22B60FDF78BFC02214DF22C6033
:10573000FDF786FCFE214DF22D60FDF781FC032173
:105740004DF22E60FDF77CFC10214DF22F60FDF72D
:1057500077FC03214DF23060FDF772FC33214DF2EE
:105760003160FDF76DFC03214DF23260FDF768FCFE
:105770006D214DF23360FDF763FC55214FF470400D
:10578000FDF75EFCAA214FF20100FDF759FC522102
:105790004FF20200FDF754FC08214FF20300FDF721
:1057A0004FFC00214FF20400FDF74AFCCC214FF4DE
:1057B0003140FDF745FC00214BF20110FDF740FCA4
:1057C00005214FF43640FDF73BFC70214FF4374084
:1057D000FDF736FC70214BF20170FDF731FC012121
:1057E0004FF43840FDF72CFC03214BF60100FDF788
:1057F00027FC03214BF60200FDF722FC03214BF6A8
:105800000300FDF71DFC02214FF43C40FDF718FC9E
:1058100000214BF60140FDF713FC00214BF602403E
:10582000FDF70EFCD0214FF44940FDF709FC0221A1
:105830004CF60110FDF704FC50214CF60210FDF768
:10584000FFFB50214CF60310FDF7FAFB50214CF6FC
:105850000410FDF7F5FB00214FF45450FDF7F0FB69
:1058600055214FF46850FDF7EBFB4FF48850FDF7DE
:10587000C9FB012001F0DCFF4FF42450FDF7C2FB0F
:10588000FDF7B1BF2DE9F04F83B0009088461F4669
:105890009DF830A013F0070318BF012303EBD703D3
:1058A000790811FB03F3DBB20193203A5FFA82FB24
:1058B00044464FF0000946E00BEB4B039A002C4B9B
:1058C000134413F809504EE02A4B03EB0B1313F863
:1058D000095048E00BEBCB039A00274B134413F815
:1058E000095040E0254B1A6821460098FDF7E2FD7B
:1058F0006D00EDB20134A4B2214B5B889C4234D2DE
:10590000A4EB0803BB4210D00136F6B2072E16D81E
:1059100015F0800FE6D1BAF1000FE9D1194B1A68E2
:1059200021460098FDF7C6FDE2E7009B01339BB2DC
:105930001A460093124B1B889A4216D2444609F12C
:1059400001095FFA89F9019B99450ED20C2FB3D05A
:10595000102FB9D0182FBDD0202F06D10A4B03EB42
:10596000CB1313F809500026D0E703B0BDE8F08F41
:10597000D47A0008487F00083885000868000020B5
:105980006C02002064000020949200082DE9F0478A
:1059900082B082460D469DF828700B9E02441FFA85
:1059A00082F90B441FFA83F804460CE0454517D2F0
:1059B000002300933B4629462046FFF763FF04EB94
:1059C0005704A4B201363278A2F12003DBB25E2B79
:1059D00006D84C45EAD35FFA8AF43D44ADB2E5E718
:1059E00002B0BDE8F087000000B58DB00022019242
:1059F000344B996B41F001019963996B01F00101FE
:105A0000019101990292196B41F004011963196B1C
:105A100001F00401029102990392196B41F008010F
:105A20001963196B01F00801039103990492196B32
:105A300041F010011963196B01F0100104910499F0
:105A40000592196B41F020011963196B01F02001D7
:105A50000591059906921A6B42F040021A631B6B7E
:105A600003F040030693069B0D230793022308933C
:105A70000123099303230A930C230B9307A91248CC
:105A800001F0DCF94CF20373079307A90F4801F00A
:105A9000D5F94FF68373079307A90D4801F0CEF9A6
:105AA0004FF63F03079307A90A4801F0C7F948F2E8
:105AB0003713079307A9084801F0C0F90DB05DF846
:105AC00004FB00BF0038024000080240000C024006
:105AD00000100240001402400018024010B584B0CB
:105AE00018B1012810D0002000E010200091019092
