:020000040800F2
:1000000000000320513E000845200008472000085A
:10001000492000084B2000084D2000080000000087
:100020000000000000000000000000004F20000859
:10003000512000080000000053200008552000084F
:10004000A13E0008A13E0008A13E0008A13E000814
:10005000A13E0008A13E0008F1220008A13E0008D0
:10006000FB22000805230008A13E0008A13E00086D
:10007000A13E0008A13E0008A13E0008A13E0008E4
:10008000A13E0008A13E0008A13E0008A13E0008D4
:10009000A13E0008A13E0008A13E0008A13E0008C4
:1000A000A13E0008A13E0008A13E0008A13E0008B4
:1000B000A13E000871230008A13E0008A13E0008EF
:1000C000A13E0008A13E0008A13E0008A13E000894
:1000D000A13E0008A13E0008D1240008A13E00086E
:1000E0000F230008A13E0008A13E0008A13E000821
:1000F000A13E0008A13E0008A13E0008A13E000864
:10010000A13E0008A13E0008A13E0008A13E000853
:10011000A13E0008A13E0008A13E0008A13E000843
:10012000A13E0008A13E0008A13E0008A13E000833
:10013000A13E0008A13E0008A13E0008A13E000823
:10014000A13E0008A13E0008A13E0008A13E000813
:10015000A13E0008A13E0008A13E0008A13E000803
:10016000A13E0008A13E0008A13E0008A13E0008F3
:10017000A13E0008A13E0008A13E000800000000CA
:10018000A13E0008A13E0008A13E0008A13E0008D3
:10019000A13E0008A13E0008A13E0008A13E0008C3
:0C01A000A13E0008A13E0008A13E00089E
:1001B000044B05481B1A062B02D9044B03B1184700
:1001C000704700BF73000020700000200000000096
:1001D00005490648091A891001EBD171491002D06E
:1001E000034B03B1184770477000002070000020D7
:1001F0000000000010B5064C237843B9FFF7D8FF84
:10020000044B13B10448AFF300800123237010BDE9
:100210007000002000000000A43E000808B5084B54
:100220001BB108490848AFF300800848036813B9B8
:10023000BDE80840CCE7064B002BF9D09847F7E71C
:100240000000000074000020A43E000870000020A0
:100250000000000070B50F4E0F4D761BB61018BF92
:10026000002405D0013455F8043B9847A642F9D143
:100270000A4E0B4D761B03F015FEB61018BF002476
:1002800006D0013455F8043B9847A642F9D170BD19
:1002900070BD00BFD83F0008D83F0008DC3F000811
:1002A000D83F000870B4860746D0541E002A41D0BB
:1002B000CAB2034602E014F1FF343BD303F8012B2A
:1002C0009D07F8D1032C2ED9CDB245EA05250F2C78
:1002D00045EA054519D903F110022646103E0F2EB6
:1002E00042F8105C42F80C5C42F8085C42F8045C8E
:1002F00002F11002F2D8A4F1100222F00F0204F071
:100300000F041032032C13440DD91E462246043A22
:10031000032A46F8045BFAD8221F22F003020432B3
:10032000134404F003042CB1C9B21C4403F8011BAC
:100330009C42FBD170BC704714460346C2E700BF25
:100340000EB410B5044683B018B183690BB900F040
:100350004BFB06A803460190059AA168204600F0D1
:1003600009FD03B0BDE8104003B070470FB410B5ED
:100370000A4B1C6882B024B1A36913B9204600F06F
:1003800033FB05A803460190049AA168204600F0BB
:10039000F1FC02B0BDE8104004B07047000000203E
:1003A0002DE9F0410E46804600283ED08369002B9F
:1003B00039D084682F4B9C4243D02F4B9C4256D05F
:1003C0002E4B9C4208BFD8F80C40A3891B073DD593
:1003D0002369002B3AD0013EA36816F8015F013B68
:1003E000A360B5B1002B04DB23685A1C22601D708A
:1003F000F2E7A769BB4222462946404601DB0A2DA7
:10040000F2D100F045F80130E6D14FF0FF30BDE801
:10041000F081002B21DB23680A22591C21601A700D
:100420001046BDE8F08100F0DFFAD8F81830D8F8AF
:100430000840002BBED1404600F0D6FA0D4B9C423E
:10044000BBD1D8F80440A3891B07C1D4214640463C
:1004500000F080F80028BED0D7E7224640460A21A7
:1004600000F016F80130D0D00A20BDE8F081D8F8AD
:100470000840AAE7003F0008E03E0008C03E000830
:10048000024B01461868FFF78BBF00BF0000002039
:10049000F8B50D461446064610B18369002B42D0CC
:1004A000254B9C4244D0254B9C4243D0244B9C423C
:1004B00008BFF468A389A269A2601A0722D523693C
:1004C00003B322686169D31AEDB28B422F4621DA59
:1004D0000133A168501C0139A16020601570626968
:1004E0009A4206D0A389DB0701D50A2D01D03846F0
:1004F000F8BD2146304600F03BF90028F7D04FF018
:10050000FF37F4E72146304600F024F80028F6D102
:100510002369D6E72146304600F02AF90028EED1BB
:1005200022680123D5E700F05FFA034B9C42BAD161
:100530007468BFE7B468BDE7003F0008E03E00080C
:10054000C03E0008024B0A4601461868FFF7A0BFEC
:1005500000000020384B70B51D6806460C4615B1EA
:10056000AB69002B42D0354B9C4245D0344B9C426A
:1005700058D0344B9C4208BFEC68B4F90C2093B2BD
:1005800019070CD52069A8B113F001021ED06369C8
:1005900000225B42A361A260F0B1002070BDDD06C5
:1005A00042D558072AD4206942F00803A3819BB2A0
:1005B0000028E9D103F42072B2F5007FE4D0304680
:1005C000214600F0AFFAA3892069DDE7990758BFFB
:1005D0006269A2600028E0D1B4F90C301A06DDD5BA
:1005E00043F04003A3814FF0FF3070BD284600F078
:1005F000FBF9124B9C42B9D16C68BEE7616B51B1FB
:1006000004F14403994204D0304600F0CFFAB4F923
:100610000C200023636300232069636022F024021E
:100620002060C1E7AC68A8E742F0400209233360CC
:100630004FF0FF30A28170BD00000020003F000895
:10064000E03E0008C03E00088B891A072DE9F04102
:100650000D46804633D44A68002A67DDEC6A002CD8
:1006600045D00022D8F80060C8F8002013F480526A
:1006700060D06A6D5F0705D569686B6B521A0BB164
:100680002B6CD21A0023296A4046A047441C39D05B
:10069000AB892A692A60DB044FF000026A6043D408
:1006A000696BC8F8006011B305F14403994202D0A8
:1006B000404600F07BFA00206863BDE8F0810E69D7
:1006C000AEB10C680E6098070CBF4B690023A41BE9
:1006D0008B600AE023463246AF6A296A4046B84733
:1006E0000028A4EB0004064404DD002CF2DC00200A
:1006F000BDE8F081AB8943F04003AB814FF0FF30A0
:10070000BDE8F081D8F800201D2AF3D8174BD3405C
:10071000DB4313F00103EDD1A9892C696B60C90497
:100720002C60BDD5002ABBD16865B9E70A6C002AE8
:1007300094DCDCE70123296A4046A047431C0246BB
:1007400002D0AB89EC6A95E7D8F80030002BF8D0DE
:100750001D2B01D0162B02D1C8F80060C7E7AB896A
:1007600043F04003AB81BDE8F08100BF01004020B1
:100770000B6933B310B5044682B008B18369ABB1DD
:10078000114B994219D0114B994218D0104B9942F4
:1007900008BFE168B1F90C3013B9002002B010BDF8
:1007A000204602B0BDE81040FFF74EBF019100F0B7
:1007B0001BF90199044B9942E5D16168EAE7A16808
:1007C000E8E70020704700BF003F0008E03E000857
:1007D000C03E000820B1054B01461868FFF7C8BFAE
:1007E000034B0449186800F045B900BF0000002021
:1007F000BC3E00087107000800207047014900F066
:1008000039B900BF710700080020704770B54A1E53
:10081000682505FB02F50E4605F1740100F00EFA9D
:10082000044640B100210C30666005F16802216089
:10083000A060FFF737FD204670BD00BF204B70B5AC
:100840001D68AB6906465BB348356B68AC68013B15
:1008500005D521E0013B5A1C04F168041CD0B4F911
:100860000C20002AF6D100254FF6FF720123E28109
:10087000A38165662560A560656025616561A561E8
:100880002946082204F15C00FFF70CFD6563A563AF
:10089000A564E564204670BD286828B10546D4E704
:1008A000284600F00FF8CFE704213046FFF7AEFFEF
:1008B00028600028F2D10C2304463360EAE700BF29
:1008C000BC3E00083D4B3E491A682DE9F04F90426E
:1008D0004FF000038364C364036508BF012383B042
:1008E00008BF836181620746FFF7A8FF786038463A
:1008F000FFF7A4FFB8603846FFF7A0FF7D68F860F7
:1009000000240423AB812C606C60AC606C66EC81CD
:100910002C616C61AC61214605F15C000822FFF797
:10092000C1FCBE68DFF89CB0DFF89CA0DFF89C90AB
:10093000DFF89C80C5F824B001230922C5F828A05F
:10094000C5F82C90C5F830802D622146F381B28124
:1009500034607460B460746634617461B46106F1CB
:100960005C0008220193FFF79DFCFD6836621220AF
:100970000222C6F824B0C6F828A0C6F82C90C6F803
:1009800030802146A881EA812C606C60AC606C6686
:100990002C616C61AC6105F15C000822FFF782FC00
:1009A000019B2D62C5F824B0C5F828A0C5F82C908D
:1009B000C5F83080BB6103B0BDE8F08FBC3E0008D5
:1009C000FD070008E9130008111400084D14000881
:1009D0006D140008024B0349186800F04BB800BFC3
:1009E000BC3E000871070008836903B96AE77047D5
:1009F000704700BF704700BF704700BF704700BF1F
:100A0000024B0349186800F00FB800BF0000002037
:100A100009080008024B0349186800F005B800BF38
:100A200000000020F90700082DE9F04110F1480707
:100A30001BD0884600267D68BC68013D0FD4A38981
:100A4000012B05F1FF3506D9B4F90E3001332046EC
:100A500001D0C04706436B1C04F16804EFD13F6826
:100A6000002FE8D13046BDE8F0813E463046BDE873
:100A7000F08100BF2DE9F84310F148071FD08846E8
:100A800006464FF000097D68BC68013D11D4A3897A
:100A9000012B05F1FF3508D9B4F90E300133214699
:100AA000304602D0C04749EA00096B1C04F16804D3
:100AB000EDD13F68002FE6D14846BDE8F883B9463E
:100AC0004846BDE8F88300BF70B50C46B1F90E107A
:100AD000002990B015461E4613DB01AA00F0F2FC77
:100AE00000280EDB029A02F47042A2F50052B2FA1C
:100AF00082F252094FF48063002032602B6010B004
:100B000070BDA38900221B06326004D5402300205B
:100B10002B6010B070BD4FF4806300202B6010B0CC
:100B200070BD00BF8A8992070B4606D501F14702C6
:100B300001211A601A6159617047F0B583B001ABA9
:100B40006A460C460546FFF7BFFF00990646284651
:100B500000F074F8B4F90C30D0B1019A124F00993A
:100B6000AF6243F08003A3812060206161611AB904
:100B70003343A38103B0F0BD2846B4F90E1000F052
:100B80002DFEB4F90C300028F2D043F00103EFE75A
:100B90009A05EFD404F1470243F002030121A38137
:100BA000226022616161E5E7FD07000891B151F81B
:100BB000043C0439002BB8BFC9181F4B1A68FAB19E
:100BC0008A4230B40AD908680C18A24226D04A607A
:100BD000196030BC70478B4203D81A465368002B0B
:100BE000F9D1146815198D420DD006D808680C1873
:100BF0009C4219D04B605160EBE70C230360E8E79F
:100C00004A601960704709680C44111999421460D0
:100C1000DFD10ACB0C4453601460DAE714685268E1
:100C20004A6020440860D3E71C685B684B6020443E
:100C300008605160CDE700BF8C00002070B5CC1C6F
:100C400024F0030408340C2C38BF0C24002C064676
:100C50003BDBA14239D8274D296851B10A68121BE4
:100C600004D436E01A68121B1AD519464B68002BBB
:100C7000F8D16968002937D02146304600F0A2FB40
:100C8000431C22D0C31C23F00305A84205D0291A17
:100C9000304600F097FB013017D02C602B4604E063
:100CA0000B2A0DD91A6013441C6003F10B0020F0CD
:100CB00007001A1D821A02D05142995070BD70BDB2
:100CC0008B420ED05A684A60EFE70C233360002055
:100CD00070BD0B2A03D84A680B462A60E5E70B462D
:100CE000E0E70A460B46F8E7304600F06BFB686029
:100CF000C2E700BF8C0000209368013B002B10B4BA
:100D0000936008DBCCB21368581C10601970204641
:100D10005DF8044B70479469A34202DBCCB20A2C05
:100D2000F1D15DF8044BFFF7B3BB00BF93B1F8B549
:100D300014460F460646D51801E0AC4208D03A46A4
:100D400014F8011B3046FFF7D7FF431CF5D1F8BD5F
:100D50000020F8BD00207047936810B5144613B901
:100D60005360184610BD00F0C1FB0023A360636010
:100D700010BD00BF2DE9F04F9DB089461446039386
:100D8000824618B18369002B00F00A818A4B99458D
:100D900000F00C81894B994500F00B81884B9945F7
:100DA00008BFDAF80C90B9F80C30180740F1EE8063
:100DB000D9F81030002B00F0E98030238DF82A306C
:100DC0002378804E0021202209918DF829200127C7
:100DD000002B00F08480252B254603D117E0252B1E
:100DE00000F0858015F8013F002BF8D1B5EB040B1E
:100DF00075D022465B4649465046FFF797FF0130C3
:100E00006DD0099B2A785B440993002A67D00023A0
:100E10004FF0FF3201350493079306938DF853305A
:100E20001A93059204E0049A07FA03F31343049318
:100E300029780522304600F0FBFC2C46831B013547
:100E40000028F0D1049BD90644BF20228DF85320FE
:100E500021781A0744BF2B228DF853202A2969D004
:100E6000A1F13002092A0BD8079B14F8011F03EBEC
:100E7000830302EB4303A1F13002092AF5D907935A
:100E80002E293FD0504D0322284600F0D1FC38B126
:100E9000049B401B402202FA00F0034301340493F8
:100EA00021784A488DF828100622013400F0C0FC51
:100EB000002849D0464BF3B103AB00934A46454B5B
:100EC00004A95046AFF300808046B8F1FF3F06D03A
:100ED000099B434409932378002B7FF47CAFB9F836
:100EE0000C305B0659D409981DB0BDE8F08FB5EB06
:100EF000040B8CD07DE7039B073323F007030833F3
:100F00000393E5E761782A2904F1010026D0A1F1D5
:100F100030020023092A05930446B3D814F8011FB0
:100F200003EB830302EB4303A1F13002092AF5D955
:100F30000593A7E7039A11680432002903921FDB87
:100F40000791617801349BE703AB00934A46214B3C
:100F500004A9504600F0E6F88046B6E7039B1A68FD
:100F60000592002A03F104030393B8BF4FF0FF3248
:100F700004F10203AEBFA178A17805921C4681E777
:100F8000494243F0020307910493DAE74946504689
:100F9000FFF7E0FA00283FF410AF4FF0FF30A3E76F
:100FA000FFF722FD044B99457FF4F4AEDAF8049084
:100FB000F9E6DAF80890F6E6003F0008E03E00089F
:100FC000C03E0008943F00089C3F0008A03F000876
:100FD000000000002D0D000810B4044C13460A4612
:100FE000014620685DF8044BFFF7C4BE00000020F6
:100FF0002DE9F0470C4691460A698968DDF82080A2
:101000008A42B8BF0A46C9F8002094F84310064641
:101010001F4611B10132C9F80020236899065DD539
:10102000D9F800200232C9F80020236813F0060F17
:1010300019461DD1E1688A1A002AD8BF194617DD62
:1010400004F1190A002505E0E368D9F800209B1A8D
:10105000AB420CDD0123524639463046C0470130D1
:1010600005F10105F0D14FF0FF30BDE8F0872168B0
:1010700094F84330003318BF01238A060AD5E118DB
:101080005A1C302081F84300224494F8451082F81D
:101090004310023304F1430239463046C047013061
:1010A000E1D0236803F00603042B29D0A36822694A
:1010B0009342C8BF4FF0000930DD9B1A99441A349F
:1010C000002501E04D4529D001232246394630460E
:1010D000C047013005F10105F4D1C4E713F0060F54
:1010E00008D1E168D9F800208A1A002AD8BF194629
:1010F000A6DCBDE794F84330003318BF0123C9E7ED
:10110000D9F80010E068A3682269A0EB01099342B6
:1011100029EAE979D1DCB9F1000FD0D10020BDE88E
:10112000F08700BF2DE9F0430C46097E85B06E299B
:10113000064617460C98984604F1430C55D00FD834
:10114000632900F01B8100F2D68000295CD0582969
:1011500040F0E88084F845102268DFF860E213E090
:10116000732900F0FD8000F289806F2900F0E4808F
:10117000702940F0D780226842F020022260782354
:10118000DFF83CE284F845300368150603F10401FA
:1011900000F1FF8055064BBF1B881B680160016092
:1011A000D00744BF42F020022260002B40F095801F
:1011B000226822F0200222601021002284F84320BD
:1011C0006068A0600028C0F28D80226822F00402CE
:1011D0002260002B67D1002840F0868065460829F0
:1011E0006FD0ACEB0503236111E023681A0600F110
:1011F000D38013F0400F0368626903F104010160BA
:101200001B6814BF1A801A60002365462361CDF85D
:1012100000803B4603AA21463046FFF7E9FE013035
:1012200021D02A46236939463046C04701301AD0BA
:101230002368E06813F0020F039B19D0C21A002A3A
:1012400016DD04F11909002504E0E068039BC21AC9
:10125000AA420DDD01234A4639463046C0470130D7
:1012600005F10105F1D14FF0FF3005B0BDE8F08385
:101270009842B8BF184605B0BDE8F08375295BD029
:1012800078294FD122687AE76168A1602D20002972
:10129000C3F1000384F8430021DB22F00402DFF8ED
:1012A0001CE122600A216546B3FBF1F201FB12301A
:1012B00013461EF8002005F8012D002BF4D1082953
:1012C0008FD12368D9078CD5626823699A4288DC5C
:1012D000302305F8013C013D83E710216DE7DFF87D
:1012E000DCE00A21002BDED19EF8003084F8423089
:1012F00004F1420573E7642901D0692912D12268FB
:101300000368150603F1040152D455064BBFB3F927
:1013100000301B6801600160002BB5DBDFF89CE04A
:101320000A214DE7012384F84210236104F14205AC
:10133000002384F843306AE723681A0633D413F095
:10134000400F036803F1040215BF1B881B6802608D
:1013500002606F2914BF0A210821DFF860E02CE742
:1013600003686268191D01601D680021284600F0AD
:101370005FFA00B3401B60602061D9E703681A6818
:10138000191D0123016004F1420584F84220236104
:10139000CEE701601B6803E703686269191D0160FD
:1013A0001B681A6030E703681A1D02601B68D0E7EB
:1013B00001601B68B0E76068DEE700BFA83F000877
:1013C000BC3F000838B5074C00230546084623609B
:1013D00000F0ECFB431C00D038BD2368002BFBD091
:1013E0002B6038BD5002002010B50C46B1F90E102C
:1013F00000F094FB002803DB636D0344636510BDBC
:10140000A38923F48053A38110BD00BF002070473F
:101410002DE9F0411646B1F90C201F46D3050C46C4
:10142000054607D500220223B1F90E1000F0E8F9B5
:10143000B4F90C20B4F90E1022F48052A2813B467C
:1014400032462846BDE8F04100F014B810B50C460D
:10145000B1F90E1000F0D4F9A389421C0EBF23F499
:10146000805343F480536065A38110BDB1F90E1021
:1014700000F016B870B50D46084C114606461A46DF
:1014800028460023236000F09FFB431C00D070BD62
:101490002368002BFBD0336070BD00BF50020020DA
:1014A00038B5074C002305460846236000F056FB7C
:1014B000431C00D038BD2368002BFBD02B6038BD07
:1014C0005002002038B50B46074C05461146184619
:1014D0000023236000F04AFB431C00D038BD236882
:1014E000002BFBD02B6038BD500200209368002BEE
:1014F00073D02DE9F04F8B8983B00C46190700900B
:10150000164626D5226922B313F0020035682CD086
:101510004FF00009B04FC846B246B84543464A4668
:1015200028BF3B460098B8F1000F50D0216AA66A48
:10153000B047002858DDDAF808301B1A8144A8EBC0
:101540000008CAF80830002BE7D1002003B0BDE83E
:10155000F08F21460098FEF7FDFF002840F0338110
:10156000A389356813F00200D2D113F0010945D1E7
:101570004F46019637B39A05D4F8088040F183802E
:101580004745C346C0F0AB8013F4906F40F0AC8089
:101590002068BA465A46494600F034FAA2682368E1
:1015A000A2EB08025B44A2602360019A9368A3EB5C
:1015B0000A03D144A7EB0A079360002BC5D0A38987
:1015C000002FD8D1D5F800906F680835D2E7D5F84C
:1015D0000090D5F8048008359FE700207047214629
:1015E0000098FFF7C5F870B3B4F90C3043F040032E
:1015F0004FF0FF30A38103B0BDE8F08F8146334642
:101600004E46A8469A464D464EB380B3206823699D
:101610006269B145CB4628BFB34698425F4604D9BC
:10162000A36813449B4500F3A68093454BDB134608
:10163000A76A216A00982A46B847071ED4DDB9EB8D
:101640000709CCD00120DAF80830DB1B3D44F61B3B
:10165000CAF80830002B3FF478AF002ED5D108F13E
:10166000080313E9600098460833002EF9D032468B
:101670000A21284600F0DCF8002800F0A1800130A3
:10168000A0EB0509C2E720682369984202D8636984
:101690009F425DD2B84528BFB8464246494600F051
:1016A000B1F9A3682268A3EB08034244A360226057
:1016B0000BB1C24679E721460098FFF759F8002898
:1016C00092D1C24671E75A46294600F09BF9A268BA
:1016D0002368A2EB0B025B44A2602360AFE72068A3
:1016E000B846BA46BB4655E762692068216902EBF5
:1016F0004208A0EB010A08EBD8780AF101004FEA92
:10170000680838444045424684BF804642465B05EF
:1017100044D511460098FFF791FA8346002855D02A
:101720005246216900F0D4F8A38923F4906343F072
:101730008003A3810BEB0A00A8EB0A03C4F810B0E6
:10174000C4F814802060A360B846BA46BB4621E7BF
:101750006FF00041B94228BF39464A4691FBF3F188
:101760000098A66A03FB01F3216AB047B0F1000AB2
:101770003FF71BAF38E71A462946019300F042F9BC
:101780002268019B00981A4422602146FEF7F0FF70
:10179000019B00287FF428AF1F4650E7009800F017
:1017A00095F983460028C5D1009D21692846FFF799
:1017B000FDF9B4F90C300C2223F080032A6015E700
:1017C00006F1010922E74FF0FF30BFE6009A0C2333
:1017D0001360B4F90C3009E700FCFF7F38B5074C03
:1017E000002305460846236000F0C8F9431C00D0DA
:1017F00038BD2368002BFBD02B6038BD5002002081
:1018000070B50D46084C114606461A462846002378
:10181000236000F0BBF9431C00D070BD2368002B8F
:10182000FBD0336070BD00BF5002002000000000FC
:1018300001F0FF01102A2BDB10F0070F08D010F881
:10184000013B013A8B422DD010F0070F42B3F6D185
:10185000F0B441EA012141EA014122F007047FF09E
:1018600000070023F0E80256083C85EA010586EAF5
:10187000010685FA47F5A3FA87F586FA47F6A5FA31
:1018800087F68EB9EED1F0BC01F0FF0102F007023D
:1018900032B110F8013B013A83EA010313B1F8D1E8
:1018A0000020704701387047002D06BF35460338C9
:1018B000073815F0010F07D1013015F4807F02BF02
:1018C000013015F4C03F0130F0BC0138704700BF53
:1018D000844641EA000313F003036DD1403A41D33B
:1018E00051F8043B40F8043B51F8043B40F8043BFA
:1018F00051F8043B40F8043B51F8043B40F8043BEA
:1019000051F8043B40F8043B51F8043B40F8043BD9
:1019100051F8043B40F8043B51F8043B40F8043BC9
:1019200051F8043B40F8043B51F8043B40F8043BB9
:1019300051F8043B40F8043B51F8043B40F8043BA9
:1019400051F8043B40F8043B51F8043B40F8043B99
:1019500051F8043B40F8043B51F8043B40F8043B89
:10196000403ABDD2303211D351F8043B40F8043B29
:1019700051F8043B40F8043B51F8043B40F8043B69
:1019800051F8043B40F8043B103AEDD20C3205D339
:1019900051F8043B40F8043B043AF9D2043208D031
:1019A000D2071CBF11F8013B00F8013B01D30B88A3
:1019B00003806046704700BF082A13D38B078DD081
:1019C00010F003038AD0C3F10403D21ADB071CBF53
:1019D00011F8013B00F8013B80D331F8023B20F8BD
:1019E000023B7BE7043AD9D3013A11F8013B00F8F6
:1019F000013BF9D20B7803704B7843708B7883707E
:101A0000604670478842F0B50DD98B1898420AD2CB
:101A10008418002A51D0224613F8014D02F8014DD6
:101A20009942F9D1F0BD0F2A48D941EA00039B073A
:101A300046D100F1100401F11003154653F8106C63
:101A400044F8106C53F80C6C44F80C6C53F8086CA8
:101A500044F8086C103D53F8046C44F8046C0F2DE6
:101A600003F1100304F11004E8D8A2F1100323F0ED
:101A70000F0302F00F0E1033BEF1030F194403449D
:101A800021D91E1F0D467446043C55F8047B46F8C8
:101A9000047F032CF8D8AEF1040424F003040434CA
:101AA0002144234402F0030262B1013B0A4411F8CD
:101AB000014B03F8014F8A42F9D1F0BD0346F3E729
:101AC0000346F2E7F0BD7246EEE700BFF8B51446F4
:101AD000F9B1C2B106460D4600F036F8844201D88D
:101AE0002846F8BD21463046FFF7A8F8074670B1F2
:101AF00022462946FFF7ECFE294630463D46FFF7D1
:101B000055F82846F8BDFFF751F82546E8E70546A1
:101B1000E6E71146BDE8F840FFF790B870B50D460E
:101B2000084C114606461A4628460023236000F05A
:101B300035F8431C00D070BD2368002BFBD0336008
:101B400070BD00BF5002002051F8040C0028A0F125
:101B50000400BCBF0B58C018704700BF024B58228E
:101B60001A604FF0FF30704750020020024B58229D
:101B70001A604FF0FF30704750020020024B58228D
:101B80001A600020704700BF50020020024B58220C
:101B90001A604FF0FF30704750020020024B58226D
:101BA0001A604FF0FF30704750020020044A054988
:101BB0001368002B08BF0B46184410601846704786
:101BC0009400002058020020024B58221A604FF067
:101BD000FF3070475002002053B94AB9002908BFAE
:101BE00000281CBF4FF0FF314FF0FF3000F07AB9F2
:101BF000ADF1080C6DE904CE00F006F8DDF804E064
:101C0000DDE9022304B070472DE9F0478C460D460C
:101C10000446089E002B51D18A4217466DD9B2FA6C
:101C200082FEBEF1000F0BD0CEF1200C01FA0EF5B2
:101C300020FA0CFC02FA0EF74CEA050C00FA0EF43E
:101C40004FEA174A250CBCFBFAF81FFA87F90AFB82
:101C500018CC45EA0C4508FB09F3AB420AD9ED194B
:101C600008F1FF3280F02381AB4240F22081A8F1DD
:101C700002083D44ED1AA4B2B5FBFAF00AFB105578
:101C800044EA054400FB09F9A14509D9E41900F12A
:101C9000FF3380F00A81A14540F2078102383C44BD
:101CA000A4EB090440EA08400021002E61D024FA88
:101CB0000EF4002334607360BDE8F0878B4207D9CF
:101CC000002E54D0002186E821000846BDE8F087A8
:101CD000B3FA83F1002940F08E80AB4202D38242F6
:101CE00000F2FA80841A65EB03050120AC46002E51
:101CF0003FD086E81010BDE8F08712B90127B7FB86
:101D0000F2F7B7FA87FEBEF1000F34D1EB1B3A0CA5
:101D10001FFA87FC0121B3FBF2F8250C02FB1833F4
:101D200045EA03450CFB08F3AB4207D9ED1908F16E
:101D3000FF3002D2AB4200F2D1808046ED1AA3B24E
:101D4000B5FBF2F002FB105543EA05440CFB00FC26
:101D5000A44507D9E41900F1FF3302D2A44500F2EB
:101D6000B8801846A4EB0C0440EA08409DE73146D1
:101D70003046BDE8F087CEF1200405FA0EF307FAED
:101D80000EF720FA04F83A0C25FA04F448EA03089E
:101D9000B4FBF2F14FEA184502FB11441FFA87FC2D
:101DA00045EA044501FB0CF3AB4200FA0EF409D9F5
:101DB000ED1901F1FF3080F08A80AB4240F287805C
:101DC00002393D44EB1A1FFA88F5B3FBF2F002FB2F
:101DD000103345EA034500FB0CF3AB4207D9ED197C
:101DE00000F1FF386FD2AB426DD902383D44EB1A97
:101DF00040EA01418FE7C1F1200722FA07F88B4042
:101E000005FA01F448EA030320FA07FE4FEA134CEF
:101E1000FD404EEA040EB5FBFCF94FEA1E440CFBF4
:101E200019551FFA83F844EA054509FB08F4AC424A
:101E300002FA01F200FA01FA08D9ED1809F1FF30AF
:101E400043D2AC4241D9A9F102091D442D1B1FFA0E
:101E50008EFEB5FBFCF00CFB10554EEA054400FB72
:101E600008F8A04507D9E41800F1FF3529D2A045AC
:101E700027D902381C4440EA0940A4EB0804A0FB1F
:101E800002894C45C6464D4615D312D056B1BAEB21
:101E90000E0364EB050404FA07F7CB401F43CC4064
:101EA000376074600021BDE8F0871846F8E6904678
:101EB000E0E6C245EAD2B8EB020E69EB0305013851
:101EC000E4E72846D7E7404691E78146BEE701466A
:101ED00078E702383C4445E7084608E7A8F10208DD
:101EE0003D442BE7704700BFFEE7000000B595B00A
:101EF000002101912F4B1A6C42F080521A641B6C26
:101F000003F080530193019B02912B4B1A6842F41A
:101F100040421A601B6803F440430293029B012372
:101F200008934FF48033099302230E934FF48002F9
:101F30000F92192210924FF4B4721192129304234B
:101F4000139308A801F02CFA38BB01F03BFE40BB0C
:101F50000F23039302230493002305934FF4A0530C
:101F600006934FF480530793052103A801F036FC34
:101F7000D8B901F0DFFC114BA3FB0030800901F060
:101F8000B1FE042001F0C4FE002211464FF0FF30E4
:101F900001F06AFE15B05DF804FB9D210848FFF7CB
:101FA000A3FFA4210648FFF79FFFB2210448FFF7D3
:101FB0009BFF00BF0038024000700040D34D62100C
:101FC000203F000808B501F0DDFEFFF78FFF00F0AD
:101FD00091F800F0F5F800F0FDF900F069FB154804
:101FE000FEF74EFA10E0144C21461448FEF7BEF9F5
:101FF000204600F0E1F90CE000220121104801F038
:10200000B8FD0A2001F0EAFE0B4B93F8D030012B0B
:10201000E9D0002000F0AAFB0028F2D001210848F6
:1020200001F0A0FD0128E7D001221146044801F08B
:10203000A0FDE6E72C3F00089C0000204C3F000874
:10204000000402407047FEE7FEE7FEE7FEE7704748
:102050007047704708B501F0AFFE01F069FE08BD9A
:1020600010B582B000240094214B5A6C42F4804297
:102070005A645A6C02F480420092009A01941A6CDD
:1020800042F080521A641B6C03F080530193019B51
:10209000032001F0D7FD224621466FF00B0001F02E
:1020A000E3FD224621466FF00A0001F0DDFD2246E5
:1020B00021466FF0090001F0D7FD224621466FF05E
:1020C000040001F0D1FD224621466FF0030001F02B
:1020D000CBFD224621466FF0010001F0C5FD2246EE
:1020E00021464FF0FF3001F0BFFD02B010BD00BF30
:1020F0000038024070B586B0002300930E4B1A6B77
:1021000042F002021A631B6B03F002030093009B70
:102110000326019601240294039402230493074D9D
:1021200001A9284601F02CFC22463146284601F040
:1021300020FD06B070BD00BF003802400004024020
:1021400010B5064C00220121204601F012FD0022AC
:102150000221204601F00DFD10BD00BF0004024029
:1021600010B5064C01221146204601F002FD002266
:102170000221204601F0FDFC10BD00BF000402401A
:1021800010B5064C00220121204601F0F2FC01228C
:102190000221204601F0EDFC10BD00BF000402400A
:1021A00010B5064C01221146204601F0E2FC012246
:1021B0000221204601F0DDFC10BD00BF00040240FA
:1021C000F0B589B0002600962F4B1A6B42F0010241
:1021D0001A631A6B02F001020092009A01961A6BC0
:1021E00042F004021A631A6B02F004020192019A8F
:1021F00002961A6B42F080021A631B6B03F0800395
:102200000293029B01270397204B04930224059419
:102210000325069503A91E4801F0B2FB4FF40053B5
:1022200003931C4B04930597069503A91A4801F0E4
:10223000A7FB0C23039306950DEB0301174801F050
:102240009FFB32462146062001F00EFD062001F0DC
:102250003DFD3A462146082001F006FD082001F028
:1022600035FD22462146092001F0FEFC092001F03F
:102270002DFD2A462146282001F0F6FC282001F0F9
:1022800025FD09B0F0BD00BF00380240000011106C
:10229000000002400000211000080240001C024023
:1022A00010B501210F4801F05DFCC0B900244FF4C6
:1022B00000510D4801F056FC08B944F00404042113
:1022C0000A4801F04FFC08B944F00204082107480D
:1022D00001F048FC08B944F00104204610BD082470
:1022E000E5E700BF0000024000080240001C024079
:1022F00008B5012001F044FC08BD08B5042001F038
:102300003FFC08BD08B5082001F03AFC08BD08B53F
:102310004FF4005001F034FC08BD10B504466420B1
:1023200001F05CFD012C07D0082C0CD0042C11D03E
:10233000B4F5005F15D010BDFFF7B2FF0828F3D148
:10234000FFF72EFFF0E7FFF7ABFF0128EED1FFF715
:10235000F7FEEBE7FFF7A4FF0228E9D1FFF700FF44
:10236000E6E7FFF79DFF0428E5D1FFF709FFE2E765
:1023700008B5024800F0ABFA08BD00BF900100208C
:1023800008B502680A4B9A4200D008BD01210948ED
:1023900001F0E8FB012805D001221146054801F0B3
:1023A000E8FBF2E700220121024801F0E2FB08BD50
:1023B000000400400004024010B50446C822002179
:1023C000FDF770FF002384F8C830C4F8CC3084F8DF
:1023D000D03010BD10B50B4C0B4B23604FF4E133E4
:1023E00063600023A360E3602361A3610C23636146
:1023F000204600F085FE01220449204600F0AFFE91
:1024000010BD00BFCC010020004400409800002017
:1024100002681D4B9A4200D0704710B588B0002169
:10242000019103F5FA331A6B42F001021A631A6B39
:1024300002F001020192019A02911A6C42F40032F8
:102440001A641B6C03F400330293029B042303936E
:1024500002230493012205920693072307930B4C52
:1024600003A9204601F08CFA0823039303A9204610
:1024700001F086FA262001F029FC032211462620CD
:1024800001F0F2FB08B010BD004400400000024023
:1024900002680C4B9A4200D070470B4B93F8D03037
:1024A000002BF9D110B5084C94F8C8305A1C84F8A8
:1024B000C820064A1278E25401F08AFCC4F8CC0025
:1024C00010BD00BF004400409C0000209800002088
:1024D00010B50E4800F0C6FE00240C4800F05AFF6C
:1024E000202805D00134B4F5003FF6D3002400E0E5
:1024F000002401220649054800F031FE20B10134D4
:10250000B4F5003FF5D310BD10BD00BFCC010020D5
:102510009800002008B501F05BFC084BD3F8CC30E4
:10252000C01A1E2808D9054A92F8D02022B91BB13A
:102530000122024B83F8D02008BD00BF9C00002080
:1025400070B584B00E4C4FF08043236000252561A8
:10255000A560012666604FF0FF33E360204600F07F
:1025600001FB00950196029503952A46694620468F
:1025700000F062FB2946204600F0CDFB04B070BDA0
:102580001002002000B589B000220192114B196C95
:1025900041F001011964196C01F0010101910199E7
:1025A0000292196B41F0010119631B6B03F00103E7
:1025B0000293029B20230393022304930592032397
:1025C00006930123079303A9034801F0D9F909B041
:1025D0005DF804FB0038024000000240F0B587B00F
:1025E00020270197012502950226039603230493D1
:1025F0000E4C01A9204601F0C3F9002239462046BD
:1026000001F0B7FA052001F0E9FB094B1A686FF0F9
:10261000030313610023536202960393059501A9F6
:10262000204601F0ADF907B0F0BD00BF0000024048
:102630001002002008B5FFF7D1FF094B1B681A698B
:1026400012F0020F06D15A6A12F5FA7FF5D3586AD2
:1026500080B208BD0021024800F00FF980B208BD29
:1026600010020020F8B546000F4B83FB0636F6B289
:102670000024254600E03846431EDFB270B1FFF764
:10268000D9FF0A4B1B6803EB8303B0EB930F01D90F
:102690000134E4B28542EED20546ECE7B44200D202
:1026A00000252846F8BD00BF565555550C020020A0
:1026B00030B587B0FFF744FF00240BE0FFF7BAFF07
:1026C00006AB03EB440323F8140C0A2001F086FB4D
:1026D0000134E4B2092CF1D900201BE00133DBB254
:1026E000092B16D806AA02EB400232F8142C06A9D0
:1026F00001EB430131F8141C8A42EFD906AC04EB1C
:10270000400424F8141C06A901EB430121F8142C01
:10271000E4E72846082803D8451CEDB22B46DFE73E
:102720000223002208E006A901EB430131F8141C42
:102730000A4492B20133DBB2072BF4D90849A1FB5A
:102740000232C2F38F01074C21600748FDF70EFEED
:102750002368002B02DB002007B030BD0120FBE71F
:10276000ABAAAAAA0C020020583F000810B5F8B185
:102770000022174B1A700620FFF774FF154B1B68D9
:102780009A001549A1FB0212B0EB520F14D903EBCA
:1027900083035A00904218D20D4B1B7853B100248A
:1027A00001460E48FDF7E2FD0322094B1A7004E0D2
:1027B0000320E1E70124F3E70024054B1B7813B164
:1027C000013B034A1370204610BD0024F5E700BF0B
:1027D000700100200C020020ABAAAAAA703F0008DA
:1027E00030B4046A24F0100404628469056A24F495
:1027F000407444EA022222F470421B039BB21A4343
:1028000025F0A005090101F0A0010D4382610562D8
:1028100030BC704730B4046A24F480740462C46924
:10282000056A24F00304224322F0F0021B01DBB20C
:102830001A4325F42065090201F420610D43C261A9
:10284000056230BC704730B4046A24F480540462DA
:10285000C469056A24F4407444EA022222F47042F6
:102860001B039BB21A4325F42045090301F42041C0
:102870000D43C261056230BC7047034690F83820B2
:10288000012A1ED0012280F838200C2917D8DFE851
:1028900001F0071616160D1616161016161613004A
:1028A0000268506B002283F8382070470268906BF2
:1028B000F8E70268D06BF5E70268106CF2E70020D9
:1028C000F0E702207047704770477047704710B5B7
:1028D000044603681A6912F0020F11D0DA6812F088
:1028E000020F0DD06FF002021A6101230376036814
:1028F0009B6913F0030F70D0FFF7E6FF00232376E8
:1029000023681A6912F0040F12D0DA6812F0040F6B
:102910000ED06FF004021A610223237623689B69AC
:1029200013F4407F5FD02046FFF7CEFF00232376CD
:1029300023681A6912F0080F12D0DA6812F0080F33
:102940000ED06FF008021A61042323762368DB6936
:1029500013F0030F4ED02046FFF7B6FF0023237677
:1029600023681A6912F0100F12D0DA6812F0100FF3
:102970000ED06FF010021A61082323762368DB69FA
:1029800013F4407F3DD02046FFF79EFF00232376BF
:1029900023681A6912F0010F03D0DA6812F0010FF0
:1029A00036D123681A6912F0800F03D0DA6812F06A
:1029B000800F34D123681A6912F0400F03D0DA680F
:1029C00012F0400F32D123681A6912F0200F03D0A1
:1029D000DA6812F0200F30D110BDFFF774FF2046E7
:1029E000FFF773FF8AE72046FFF76DFF2046FFF7EA
:1029F0006CFF9BE72046FFF766FF2046FFF765FF69
:102A0000ACE72046FFF75FFF2046FFF75EFFBDE71C
:102A10006FF001021A612046FFF7B2FCC1E76FF0C8
:102A200080021A61204600F084F9C3E76FF040028B
:102A30001A612046FFF74AFFC5E76FF020021A61CE
:102A4000204600F075F9C7E70368454A90424AD02E
:102A5000B0F1804F49D0A2F57C42904247D002F5B8
:102A60008062904245D002F58062904243D002F5E8
:102A70007842904235D000221AB123F070034A68A0
:102A80001343374A90423AD0B0F1804F50D0A2F56C
:102A90007C4290424ED002F5806290424CD002F5CA
:102AA000806290424AD002F57842904248D002F5C6
:102AB0007052904246D002F58062904244D002F5B6
:102AC0008062904242D0A2F59832904240D002F506
:102AD000806290423ED002F5806290420DD000228A
:102AE0000EE00122C8E70122C6E70122C4E7012265
:102AF000C2E70122C0E70122BEE7012200E0012275
:102B00001AB123F44073CA68134303608B68C3622D
:102B10000B688362124B984220D003F58063984281
:102B20001AD000230BB10B69036301234361704783
:102B30000122E5E70122E3E70122E1E70122DFE7E5
:102B40000122DDE70122DBE70122D9E70122D7E7F5
:102B50000122D5E70122D3E70123E3E70123E1E7DF
:102B600000000140A8B110B5044690F839305BB1BF
:102B7000022384F83930211D2068FFF765FF012307
:102B800084F83930002010BD80F83830FFF7FAFCA7
:102B9000EEE701207047000070B4046A24F00104DD
:102BA00004628469056A234EB04230D0B0F1804F90
:102BB0002FD0A6F57C46B0422DD006F58066B042F7
:102BC0002BD006F58066B04229D006F57846B04293
:102BD00027D006F57056B04225D0A6F59436B042FF
:102BE00013D000260EBB24F0030242F0010222F0B3
:102BF000F0021B01DBB2134325F00A0201F00A01C7
:102C000011438361016270BC70470126EAE7012627
:102C1000E8E70126E6E70126E4E70126E2E70126E8
:102C2000E0E70126DEE70126DCE724F00304224387
:102C3000DDE700BF0000014038B590F83830012BC7
:102C400058D00D460446012380F83830022380F81E
:102C50003930DAB1042A2AD0082A3AD0CB684A6837
:102C600009680068FFF7EFFD2268D36923F4406329
:102C7000D3612268D369A96843EA0123D3610123A0
:102C800084F83930002084F8380038BDCB684A68B1
:102C900009680068FFF780FF2268936923F00C033E
:102CA000936122689369A9680B439361E7E7CB6856
:102CB0004A6809680068FFF793FD2268936923F466
:102CC0004063936122689369A96843EA0123936191
:102CD000D5E7CB684A6809680068FFF79BFD226862
:102CE000D36923F00C03D3612268D369A9680B432D
:102CF000D361C4E7022038BD10B4012303FA01F404
:102D0000036A23EA04030362036A8A4013430362EB
:102D10005DF8044B704710B5044601220068FFF7C8
:102D2000EBFF2268136843F001031360002010BD1D
:102D3000704770470268D36823F49073D3600268C9
:102D4000536923F001035361202380F83A30704720
:102D500090F83930DBB2212B01D002207047836814
:102D6000B3F5805F17D00268036A591C01621B78B3
:102D70005360C38C9BB2013B9BB2C384DBB9026836
:102D8000D36823F08003D3600268D36843F0400324
:102D9000D36000207047036A02681B88C3F30803EE
:102DA000536003691BB9036A02330362E1E7036AF4
:102DB00001330362DDE70020704700002DE9F04792
:102DC00004460268136923F44053C1680B4313613E
:102DD0000168CB6823F4164323F00C038268006972
:102DE000024360690243E06902431343CB602268F7
:102DF000536923F44073A1690B435361E369B3F54D
:102E0000004F62D0D4F80080BB4B984500F01B8186
:102E100003F58063984500F0168100F091FD00EB0A
:102E2000800000EB80006568AD00B0FBF5F5B34FA6
:102E3000A7FB05356D092E0100F082FD00EB800037
:102E400000EB80006568AD00B0FBF5FA00F078FD9E
:102E500000EB800000EB80006568AD00B0FBF5F58D
:102E6000A7FB05356D094FF0640909FB15A52D0178
:102E70003235A7FB05356D0905F0F005354400F046
:102E80005FFD00EB800000EB80006668B600B0FBE1
:102E9000F6F600F055FD00EB800000EB8000636863
:102EA0009B00B0FBF3F0A7FB0030400909FB106961
:102EB0004FEA091909F13209A7FB0937C7F343178C
:102EC0002F44C8F80870BDE8F087D4F8008003F1FB
:102ED000804303F5104398455CD003F58063984523
:102EE00058D000F02DFD00EB800000EB80006568FD
:102EF0006D00B0FBF5F5814FA7FB05356D092E017F
:102F000000F01EFD00EB800000EB800065686D00A6
:102F1000B0FBF5FA00F014FD00EB800000EB800040
:102F200065686D00B0FBF5F5A7FB05356D094FF041
:102F3000640909FB15A5ED003235A7FB05356D09C0
:102F40006D0005F4F875354400F0FAFC00EB8000E4
:102F500000EB800066687600B0FBF6F600F0F0FC4F
:102F600000EB800000EB800063685B00B0FBF3F3D4
:102F7000A7FB03235B0909FB13694FEAC90909F1A0
:102F80003209A7FB0937C7F342172F44C8F8087066
:102F9000BDE8F08700F0E4FC00EB800000EB80006F
:102FA00065686D00B0FBF5F5544FA7FB05356D095D
:102FB0002E0100F0D5FC00EB800000EB800065687E
:102FC0006D00B0FBF5FA00F0CBFC00EB800000EBED
:102FD000800065686D00B0FBF5F5A7FB05356D0950
:102FE0004FF0640909FB15A5ED003235A7FB053547
:102FF0006D096D0005F4F875354400F0B1FC00EB87
:10300000800000EB800066687600B0FBF6F600F00A
:10301000A7FC00EB800000EB800063685B00B0FB66
:10302000F3F3A7FB03235B0909FB13694FEAC90903
:1030300009F13209A7FB0937C7F342172F44C8F833
:103040000870BDE8F08700F08BFC00EB800000EB1F
:1030500080006568AD00B0FBF5F5284FA7FB05358E
:103060006D092E0100F07CFC00EB800000EB80007D
:103070006568AD00B0FBF5FA00F072FC00EB800073
:1030800000EB80006568AD00B0FBF5F5A7FB0535EA
:103090006D094FF0640909FB15A52D013235A7FB19
:1030A00005356D0905F0F005354400F059FC00EBDD
:1030B000800000EB80006668B600B0FBF6F600F01A
:1030C0004FFC00EB800000EB800063689B00B0FBCE
:1030D000F3F3A7FB03235B0909FB13694FEA091903
:1030E00009F13209A7FB0937C7F343172F44C8F882
:1030F0000870BDE8F08700BF001001401F85EB514C
:1031000058B310B5044690F839300BB3242384F833
:1031100039302268D36823F40053D3602046FFF788
:103120004DFE2268136923F49043136122685369AA
:1031300023F02A0353612268D36843F40053D36019
:103140000020E063202384F8393084F83A3010BD41
:1031500080F83830FFF75CF9D8E70120704790F825
:103160003A30DBB2202B01D002207047D1B1DAB166
:1031700090F83830012B19D081628285C2850023F6
:10318000C363222280F83A2080F8383001684A6907
:1031900042F001024A610168CA6842F49072CA6052
:1031A0001846704701207047012070470220704781
:1031B000704708B50168CB6823F04003CB6020233B
:1031C00080F83930FFF7F4FF002008BD08B590F80B
:1031D0003A30DBB2222B01D0022008BD8368B3F560
:1031E000805F0FD003690BBB836A5A1C826202683E
:1031F00052681A70C38D9BB2013B9BB2C385F3B179
:10320000002008BD826A036943B903685B68C3F3A1
:1032100008031380836A02338362EBE703685B6809
:10322000DBB21380836A01338362E3E7826A531C53
:10323000836203685B6803F07F031370DAE7026858
:10324000D36823F49073D3600268536923F00103B9
:103250005361202380F83A30FFF71AF9002008BDA7
:103260007047000010B5044602681368D1685269BF
:1032700013F00F0005D113F0200F02D011F0200F32
:1032800053D1002867D012F0010202D111F4907FCF
:1032900061D013F0010F06D011F4807F03D0E06BF2
:1032A00040F00100E06313F0040F04D01AB1E06BAA
:1032B00040F00200E06313F0020F04D01AB1E06B9B
:1032C00040F00400E06313F0080F04D01AB1E26B81
:1032D00042F00802E263E26B002A48D013F0200FAC
:1032E00002D011F0200F24D123685B6903F0400362
:1032F000E26B12F0080F00D13BB32046FFF71AFD36
:1033000023685A6912F0400F1BD05A6922F040021C
:103310005A61636B8BB11A4A1A65606B00F03EFC10
:1033200028B3606B036D984710BD2046FFF74EFF32
:1033300010BD2046FFF74AFFD6E72046FFF790FF73
:1033400010BD2046FFF78CFF10BD2046FFF788FF19
:103350000023E36310BD13F0800F02D011F0800F43
:1033600006D113F0400F02D011F0400F04D110BD70
:103370002046FFF7EDFC10BD2046FFF71AFFF6E7E9
:103380008533000808B5806B0023C385C384FFF72D
:1033900067FF08BD90F8393090F83A00184370473D
:1033A000002800F0BB8170B582B00446036813F0BA
:1033B000010F3BD0A74B9B6803F00C03042B2CD0D0
:1033C000A44B9B6803F00C03082B21D06368B3F572
:1033D000803F4FD0B3F5A02F52D09E4B1A6822F4F5
:1033E00080321A601A6822F480221A606368002B07
:1033F00050D000F0EDFC0546964B1B6813F4003FDF
:1034000014D100F0E5FC401B6428F5D903208AE1C3
:10341000904B5B6813F4800FD8D08E4B1B6813F46D
:10342000003F03D06368002B00F07A81236813F01B
:10343000020F55D0874B9B6813F00C0F3ED0854B85
:103440009B6803F00C03082B33D0E368002B68D093
:103450000122814B1A6000F0BBFC05467D4B1B68C6
:1034600013F0020F54D100F0B3FC401B0228F5D931
:10347000032058E1774A136843F480331360B5E7BB
:10348000744B1A6842F480221A601A6842F480323F
:103490001A60ABE700F09CFC05466E4B1B6813F40A
:1034A000003FC3D000F094FC401B6428F5D90320F2
:1034B00039E1684B5B6813F4800FC6D1654B1B681C
:1034C00013F0020F04D0E368012B01D001202AE1A0
:1034D000604A136823F0F803216943EAC1031360CB
:1034E000236813F0080F40D0636963B301225B4B7C
:1034F0001A6000F06DFC0546564B5B6F13F0020F2F
:1035000033D100F065FC401B0228F5D903200AE105
:10351000504A136823F0F803216943EAC10313609A
:10352000DEE700224C4B1A6000F052FC0546494B86
:103530001B6813F0020FD3D000F04AFC401B022896
:10354000F5D90320EFE00022444B1A6000F040FC64
:103550000546404B5B6F13F0020F06D000F038FCBD
:10356000401B0228F5D90320DDE0236813F0040F87
:1035700079D0384B1B6C13F0805F33D1002301935B
:10358000344B1A6C42F080521A641B6C03F0805367
:103590000193019B0125324B1B6813F4807F23D0DC
:1035A000A368012B34D0052B38D02A4B1A6F22F098
:1035B00001021A671A6F22F004021A67A368002B2F
:1035C00036D000F005FC0646224B1B6F13F0020FAD
:1035D00048D100F0FDFB801B41F288339842F3D9BB
:1035E0000320A0E00025D6E71D4A136843F480734A
:1035F000136000F0EDFB0646194B1B6813F4807F47
:10360000CED100F0E5FB801B0228F5D903208AE02B
:10361000104A136F43F001031367CFE70D4B1A6F86
:1036200042F004021A671A6F42F001021A67C5E7F6
:1036300000F0CEFB0646074B1B6F13F0020F11D0B4
:1036400000F0C6FB801B41F288339842F3D9032077
:1036500069E000BF0038024000004742800E474248
:1036600000700040E5B9A369002B5BD0304A926836
:1036700002F00C02082A58D0022B17D000222D4B42
:103680001A6000F0A5FB0446294B1B6813F0007F6D
:1036900042D000F09DFB001B0228F5D9032042E038
:1036A000234A136C23F080531364DCE70022214B80
:1036B0001A6000F08DFB05461D4B1B6813F0007F60
:1036C00006D000F085FB401B0228F5D903202AE034
:1036D000E369226A1343626A43EA8213A26A5208C8
:1036E000013A43EA0243E26A43EA0263104A536042
:1036F0000122104B1A6000F06BFB04460C4B1B6858
:1037000013F0007F06D100F063FB001B0228F5D9FF
:10371000032008E0002006E0002004E001207047BC
:10372000012000E0002002B070BD0120FBE700BFD7
:103730000038024060004742F8B5254B9B6803F013
:103740000C03042B41D0082B01D02248F8BD204B9C
:103750005A6802F03F025B6813F4800F12D01C4BD2
:103760005968C1F3881100231B48A1FB0001FEF733
:1037700033FA174B5B68C3F3014301335B00B0FBC3
:10378000F3F0F8BD124B5B68C3F388131E460027A5
:103790005C010025E41A65EB0705A90141EA946183
:1037A000A001001B61EB0501CB0043EA5073C4008C
:1037B000A01943EB07018B0243EA90538402204691
:1037C00019460023FEF708FAD3E70348F8BD00BF07
:1037D000003802400024F40040787D01002800F009
:1037E0009D8070B504464F4B1B6803F00F038B425E
:1037F00009D2CBB24B4A1370136803F00F039942FE
:1038000001D0012070BD236813F0020F17D013F010
:10381000040F04D0444A936843F4E0539360236850
:1038200013F0080F04D0404A936843F46043936058
:103830003D4A936823F0F003A068034393600D466C
:10384000236813F0010F32D06368012B21D09A1E38
:10385000012A25D9344A126812F0020F60D0324989
:103860008A6822F0030213438B6000F0B1FA064627
:103870002D4B9B6803F00C036268B3EB820F16D0EC
:1038800000F0A6FA801B41F288339842F0D9032059
:1038900070BD254A126812F4003FE0D1012070BDCE
:1038A000214A126812F0007FD9D1012070BD1D4B52
:1038B0001B6803F00F039D4209D2EAB2194B1A703C
:1038C0001B6803F00F039D4201D0012070BD2368E7
:1038D00013F0040F06D0144A936823F4E053E16810
:1038E0000B439360236813F0080F07D00E4A9368C8
:1038F00023F46043216943EAC1039360FFF71CFF8F
:10390000094B9B68C3F30313084AD35CD840084BA8
:103910001860002000F010FA002070BD01207047F0
:10392000012070BD003C024000380240783F000892
:103930006C000020014B1868704700BF6C0000202D
:1039400008B5FFF7F7FF044B9B68C3F38223034AD4
:10395000D35CD84008BD00BF00380240883F000853
:1039600008B5FFF7E7FF044B9B68C3F34233034AF4
:10397000D35CD84008BD00BF00380240883F000833
:10398000F0B583B000244BE04FEAD40E0EF1080EE0
:1039900050F82E2004F00706B6000F27B74022EAA1
:1039A00007020F6907FA06F6324340F82E2046E078
:1039B000092600E0002606FA0EF632430233644E72
:1039C00046F82320634B1A68EB4302EA03064F686C
:1039D00017F4803F01D045EA02065E4A166052683D
:1039E00003EA02064F6817F4003F01D045EA0206D9
:1039F000584A5660926803EA02064F6817F4801F1F
:103A000001D045EA0206534A9660D26813404E68D8
:103A100016F4001F01D045EA02034E4AD360013478
:103A20000F2C00F292800123A3400A6803EA0205EA
:103A3000AB42F4D14A68022AA6D0122AA4D0066862
:103A40004FEA440E032202FA0EF2D24316404F68A8
:103A500007F0030707FA0EF73E4306604E68771E2D
:103A6000012F03D9112E01D0122E0FD186681640D6
:103A7000CF6807FA0EF73E438660466826EA0303DE
:103A80004E68C6F30016A64033434360C3681A402D
:103A90008B6803FA0EF31A43C2604B6813F0805F21
:103AA000BDD0002301932C4B5A6C42F480425A64DF
:103AB0005B6C03F480430193019BA3089E1C244A82
:103AC00052F8262004F003064FEA860E0F2606FA67
:103AD0000EF622EA0602214FB8423FF46BAF204EA9
:103AE000B04222D006F58066B04220D006F580664E
:103AF000B0421ED006F58066B0421CD006F5806646
:103B0000B0421AD006F58066B04218D006F580663D
:103B1000B04216D006F58066B04214D006F5806635
:103B2000B0423FF445AF0A2645E7012643E70226A7
:103B300041E703263FE704263DE705263BE7062647
:103B400039E7072637E7082635E703B0F0BD00BFA1
:103B500000380140003C01400038024000000240B3
:103B6000000402400369194201D10020704701207E
:103B7000704712B909048161704781617047000084
:103B800008B5054B5B69034200D108BD024B586183
:103B9000FEF7C3FBF9E700BF003C014090F8353069
:103BA000DBB2022B03D0802343650120704705233D
:103BB00080F835300268136823F001031360002099
:103BC0007047000010B582B000230193194B1A6CA6
:103BD00042F080521A641B6C03F080530193019BE6
:103BE0000122154B1A6000F0F3F80446134B5B6892
:103BF00013F4803F08D100F0EBF8001BB0F57A7F9A
:103C0000F4D9032002B010BD01220D4B1A6000F060
:103C1000DFF80446094B5B6813F4003F07D100F05E
:103C2000D7F8001BB0F57A7FF4D90320EAE700202B
:103C3000E8E700BF0038024040000E42007000403C
:103C400044000E42074AD36823F4E0631B041B0CB4
:103C5000000200F4E060184340F0BF6040F4003020
:103C6000D060704700ED00E030B4164BDB68C3F362
:103C70000223C3F10704042C28BF04241D1D062DB4
:103C800017D9033B012505FA04F4013C2140994072
:103C900005FA03F3013B1340194300280BDB09012C
:103CA000C9B200F1604000F5614080F8001330BCFB
:103CB00070470023E6E700F00F000901C9B2024B8C
:103CC0001954F4E700ED00E014ED00E0420900F0C3
:103CD0001F00012303FA00F0014B43F82200704754
:103CE00000E100E00138B0F1807F0AD2064B586055
:103CF000F021064A82F823100020986007221A60FB
:103D000070470120704700BF10E000E000ED00E0C8
:103D1000042805D0054A136823F004031360704794
:103D2000024A136843F004031360704710E000E098
:103D300008B5FEF7EFFB08BD10B504460E4B18782A
:103D40004FF47A73B3FBF0F30C4A1068B0FBF3F056
:103D5000FFF7C8FF68B90F2C01D9012010BD002260
:103D600021464FF0FF30FFF77FFF054B1C6000201E
:103D700010BD012010BD00BF640000206C000020B9
:103D80006800002008B50B4B1A6842F400721A60F4
:103D90001A6842F480621A601A6842F480721A60EB
:103DA0000320FFF74FFF0020FFF7C6FFFEF758F98B
:103DB000002008BD003C0240034A1168034B1B78F9
:103DC0000B441360704700BF4C02002064000020C9
:103DD000014B1868704700BF4C02002038B50446FC
:103DE000FFF7F6FF0546B4F1FF3F02D0044B1B7806
:103DF0001C44FFF7EDFF401B8442FAD838BD00BFDA
:103E0000640000200F49D1F8883043F47003C1F8F2
:103E100088300D4B1A6842F001021A600020986049
:103E20001A6822F0847222F480321A60074A5A60BB
:103E30001A6822F480221A60D8604FF000638B6009
:103E4000704700BF00ED00E0003802401030002451
:103E5000DFF834D0002103E00C4B5B5843500431B1
:103E60000B480C4B42189A42F6D30B4A02E000234F
:103E700042F8043B094B9A42F9D3FFF7C3FFFCF722
:103E8000E9F9FEF79FF8704700000320E03F0008C3
:103E9000000000207000002070000020540200206C
:103EA000FEE70000F8B500BFF8BC08BC9E467047AE
:0C3EB000F8B500BFF8BC08BC9E46704787
:103EBC0004000020000000000000000000000000D2
:103ECC0000000000000000000000000000000000E6
:103EDC0000000000000000000000000000000000D6
:103EEC0000000000000000000000000000000000C6
:103EFC0000000000000000000000000000000000B6
:103F0C0000000000000000000000000000000000A5
:103F1C00000000005372632F6D61696E2E63000008
:103F2C002A2A2A2A2A2A2A2A2A2A2A535953434C29
:103F3C004B2A2A2A2A2A2A2A2A2A2A2A000000005C
:103F4C00257320284F4B290A00000000747061640F
:103F5C005F64656661756C745F76616C3A25640D9F
:103F6C000A000000723A25640D0A000000000000EF
:103F7C00000000000102030406070809000000000D
:103F8C000102030443000000232D302B200000000D
:103F9C00686C4C006566674546470000303132332B
:103FAC003435363738394142434445460000000029
:103FBC003031323334353637383961626364656693
:043FCC0000000000F1
:083FD00038DCFF7F0100000056
:043FD8001D020008BE
:043FDC00F5010008E3
:103FE0000400002000000000003F0008E03E000840
:103FF000C03E0008000000000000000000000000BB
:1040000000000000903F00080000000000000000D9
:1040100000000000000000000000000000000000A0
:104020000000000000000000000000000000000090
:104030000000000000000000000000000000000080
:104040000000000001000000100000000024F40047
:0400000508003E5160
:00000001FF
